:020000040800F2
:10000000005000201101000895010008950100082A
:100010009501000895010008950100080000000006
:100020000000000000000000000000009501000832
:1000300095010008000000009501000895010008E6
:100040009501000895010008950100089501000838
:100050009501000895010008950100089501000828
:100060009501000895010008950100089501000818
:100070009501000895010008950100089501000808
:1000800095010008950100089501000895010008F8
:1000900095010008950100089501000895010008E8
:1000A00095010008950100089501000895010008D8
:1000B00095010008950100089501000895010008C8
:1000C00095010008950100089501000895010008B8
:1000D00095010008950100089501000895010008A8
:1000E00095010008950100089501000880B500AF52
:1000F00000F0E2FA00F0AEFA00BF80BD80B500AFBC
:10010000FFF7F4FF4FF47A7000F0AAFBFAE7000063
:1001100080B586B000AF1A4A1A4BD31A7B60194BD0
:100120007B61194B3B610023FB600AE03A69531C79
:100130003B617B69591C796112781A70FB68013345
:10014000FB60FA687B689A42F0D3104A104BD31ACE
:100150007B600F4B7B610023BB6007E07B695A1C0F
:100160007A6100221A70BB680133BB60BA687B6891
:100170009A42F3D3FFF7C2FF00BF1837BD4680BDD8
:10018000000000200000002098100008000000205F
:100190000000002080B500AF00F07EFBFCE700BF50
:1001A00080B400AF00BFBD4680BC704780B400AFD4
:1001B000094B00225A60084B5B68074A43F440131E
:1001C0005360054BDB68044A43F40053D36000BF1F
:1001D000BD4680BC704700BF0010014080B400AF36
:1001E000074B5B68064B00225A60054B5B68044A6C
:1001F00043F0FF03536000BFBD4680BC704700BFA3
:10020000000C014080B400AF044B5B68034A43F02C
:100210000203536000BFBD4680BC70470000014030
:1002200080B400AF204B1B889BB21F4A6FEA434348
:100230006FEA53439BB213801B4B1B889BB21A4A35
:10024000C3F30E039BB21380174B9B889BB2164AD5
:1002500043F024039BB29380134B9B8B9BB2124AB7
:1002600043F0B4039BB293830F4B25221A840E4BA9
:100270009B889BB20C4A43F480739BB293800A4BD9
:100280001B889BB2084A43F001039BB21380064BC4
:100290001B889BB2044A43F480639BB2138000BF67
:1002A000BD4680BC704700BF0054004080B400AF22
:1002B0000E4B1B889BB20D4A43F480639BB21380A4
:1002C0000A4B1B889BB2094A43F480739BB213808C
:1002D00000BF064B9B8A9BB203F00103002BF8D0B2
:1002E00000BF00BFBD4680BC704700BF0054004047
:1002F00080B400AF054B1B889BB2044A43F40073E3
:100300009BB2138000BFBD4680BC704700540040C4
:1003100080B485B000AF0346FB710C4BFA7992B202
:100320001A8200BF094B9B8A9BB203F00203002B89
:10033000F8D0064B9B8A9AB2044B1B8B9BB213439B
:10034000FB8100BF1437BD4680BC7047005400409D
:1003500080B483B000AF0346FB7100BF0C4B9B8A97
:100360009BB203F08003002BF8D0094BFA7992B2CC
:100370001A8200BF064B9B8A9BB203F00403002B3A
:10038000F8D000BF00BF0C37BD4680BC704700BF2F
:100390000054004080B483B000AF78600B46FB701F
:1003A00012E000BF114B9B8A9BB203F08003002B2D
:1003B000F8D07B681A780D4B92B21A827B680133B1
:1003C0007B60FB78013BFB70FB78002BE9D100BF21
:1003D000064B9B8A9BB203F00403002BF8D000BFAE
:1003E00000BF0C37BD4680BC704700BF00540040C2
:1003F00080B485B000AF03463960FB711346BB7112
:10040000934B1B889BB2924A43F480639BB2138048
:10041000BB79FB73BB79012B37D18D4BFA7992B243
:100420001A8200BF8A4B9B8A9BB203F00203002B07
:10043000F8D0874B1B889BB2854A23F480639BB21C
:100440001380834B9B8A9AB2814B1B8B9BB21343C5
:100450003B817F4B1B889BB27D4A43F400739BB268
:10046000138000BF7A4B9B8A9BB203F04003002BA2
:10047000F8D0774B1B8A99B2BA79FB7BD31A1A460C
:100480003B681344CAB21A70DDE0BB79022B5DD120
:100490006F4B1B889BB26E4A43F400639BB2138080
:1004A0006B4BFA7992B21A8200BF694B9B8A9BB25E
:1004B00003F00203002BF8D0654B9B8A9AB2644B81
:1004C0001B8B9BB213437B81614B1B889BB2604AA1
:1004D00023F480639BB2138000BF5D4B9B8A9BB269
:1004E00003F04003002BF8D0594B1B889BB2584AAD
:1004F00043F400739BB21380554B1B8A99B2BA79AF
:10050000FB7BD31A1A463B681344CAB21A70FB7BB2
:10051000013BFB7300BF4E4B9B8A9BB203F0400331
:10052000002BF8D04A4B1B8A99B2BA79FB7BD31ABD
:100530001A463B681344CAB21A70454B1B889BB2DB
:10054000434A23F400639BB213807CE0404BFA796A
:1005500092B21A8200BF3E4B9B8A9BB203F0020309
:10056000002BF8D03A4B9B8A9AB2394B1B8B9BB22B
:100570001343BB8115E000BF354B9B8A9BB203F050
:100580004003002BF8D0324B1B8A99B2BA79FB7B1F
:10059000D31A1A463B681344CAB21A70FB7B013B5C
:1005A000FB73FB7B032BE6D800BF294B9B8A9BB2D6
:1005B00003F04003002BF8D000BF254B9B8A9BB271
:1005C00003F00403002BF8D0214B1B889BB2204A78
:1005D00023F480639BB213801D4B1B8A99B2BA79B6
:1005E000FB7BD31A1A463B681344CAB21A70FB7BD2
:1005F000013BFB73164B1B889BB2154A43F40073F7
:100600009BB21380124B1B8A99B2BA79FB7BD31A27
:100610001A463B681344CAB21A70FB7B013BFB735A
:1006200000BF0B4B9B8A9BB203F04003002BF8D01A
:10063000074B1B8A99B2BA79FB7BD31A1A463B68DF
:100640001344CAB21A7000BF1437BD4680BC70474D
:100650000054004080B400AF164B9B69154A43F02C
:1006600001039361134B9B69124A43F008039361A2
:10067000104B9B690F4A43F0100393610D4BDB69EC
:100680000C4A43F00403D3610A4B5B69094A43F007
:1006900001035361074B9B69064A43F4007393615E
:1006A000044BDB69034A43F40013D36100BFBD462A
:1006B00080BC70470010024080B500AF134B1B6830
:1006C000124A43F001031360104B5A680F49104B54
:1006D00013404B600D4B1B680C4A23F0847323F4CA
:1006E00080331360094B1B68084A23F4802313608E
:1006F000064B5B68054A23F4FE035360034B4FF43B
:100700001F029A6000F006F800BF80BD0010024092
:100710000000FFF880B500AF00F002F800BF80BD18
:1007200080B483B000AF00237B6000233B603A4B72
:100730001B68394A43F480331360374B1B6803F45A
:1007400000333B607B6801337B603B68002B03D147
:100750007B68B3F5A06FF0D12F4B1B6803F4003317
:10076000002B02D001233B6001E000233B603B688B
:10077000012B4BD1294B1B68284A43F0100313600F
:10078000264B1B68254A23F007031360234B1B6885
:10079000224A43F0020313601F4B1F4A5B685360F9
:1007A0001D4B1D4A5B6853601B4B5B681A4A43F440
:1007B00080635360184B5B68174A23F47C135360C3
:1007C000154B5B68144A43F4E8135360124B1B68E3
:1007D000114A43F08073136000BF0F4B1B6803F096
:1007E0000073002BF9D00C4B5B680B4A23F003031A
:1007F0005360094B5B68084A43F00203536000BF33
:10080000054B5B6803F00C03082BF9D100BF0C37D4
:10081000BD4680BC704700BF00100240002002406F
:1008200080B400AF0D4B40F2CF729A850B4B47223C
:100830001A850A4B9B8A9BB2084A43F001039BB27C
:100840009382064B1B889BB2044A43F001039BB280
:10085000138000BFBD4680BC704700BF0008004049
:1008600080B483B000AF78600BE00A4B00229A841A
:1008700000BF084B9B8C9BB2002BFAD07B68013BDE
:100880007B607B68002BF0D100BF00BF0C37BD46FA
:1008900080BC70470008004080B500AF054BDB68A6
:1008A000044A83F40053D3600348FFF7D9FF00BF25
:1008B00080BD00BF0010014040420F0080B485B0F1
:1008C00000AFF860B9607A603B60FB68BA681A6094
:1008D000FB687A685A60FB683A689A60FB684FF078
:1008E0007E52DA60FB684FF000021A6100BF1437D5
:1008F000BD4680BC7047B0B582B000AF786039604B
:100900007B68DA687B681B681946104600F06CF952
:1009100003461A467B68DA607B68DC687B68DA68C5
:100920007B685B681946104600F05EF9034619467D
:10093000204600F015FB03461A467B681A617B6867
:100940009C687B681D697B689B681946386800F065
:1009500049F903461946284600F04EFA034619465F
:10096000204600F041F903461A467B689A607B688E
:10097000DC687B681B6919464FF07E5000F032F945
:1009800003461946204600F037FA03461A467B68AC
:10099000DA607B689B6818460837BD46B0BD80B5F5
:1009A00084B000AF786039604FF00003FB60002333
:1009B000BB600DE0BB689B007A6813441B68194656
:1009C000F86800F011F90346FB60BB680133BB60B7
:1009D000BA683B689A42EDDB386800F0B9F9034623
:1009E0001946F86800F0BCFA034618461037BD46B1
:1009F00080BD80B588B000AFF860B9607A604FF014
:100A00000003FB610023BB6118E0BB699B00FA682F
:100A100013441B687968184600F0E4F803467B61CC
:100A20007969786900F0E8F903461946F86900F039
:100A3000DBF80346FB61BB690133BB61BA69BB6884
:100A40009A42E2DBBB68013B184600F081F903469D
:100A50001946F86900F084FA034618462037BD4667
:100A600080BD80B483B000AF786000BF0C37BD4656
:100A700080BC70474FF0FF0C1CEAD0521EBF1CEA2E
:100A8000D15392EA0C0F93EA0C0F6FD01A4480EA0C
:100A9000010C400218BF5FEA41211ED04FF00063F5
:100AA00043EA501043EA5111A0FB01310CF0004021
:100AB000B1F5000F3EBF490041EAD3715B0040EA47
:100AC000010062F17F02FD2A1DD8B3F1004F40EB17
:100AD000C25008BF20F00100704790F0000F0CF0EA
:100AE000004C08BF49024CEA502040EA51207F3AAE
:100AF000C2BFD2F1FF0340EAC250704740F4000089
:100B00004FF00003013A5DDC12F1190FDCBF00F079
:100B100000407047C2F10002410021FA02F1C2F127
:100B2000200200FA02FC5FEA310040F1000053EAC3
:100B30004C0308BF20EADC70704792F0000F00F011
:100B4000004C02BF400010F4000F013AF9D040EA17
:100B50000C0093F0000F01F0004C02BF490011F4AB
:100B6000000F013BF9D041EA0C018FE70CEAD153A9
:100B700092EA0C0F18BF93EA0C0F0AD030F0004C29
:100B800018BF31F0004CD8D180EA010000F00040DD
:100B9000704790F0000F17BF90F0004F084691F09B
:100BA000000F91F0004F14D092EA0C0F01D14202D5
:100BB0000FD193EA0C0F03D14B0218BF084608D19E
:100BC00080EA010000F0004040F0FE4040F40000E8
:100BD000704740F0FE4040F44000704780F0004015
:100BE00002E000BF81F0004142001FBF5FEA410305
:100BF00092EA030F7FEA226C7FEA236C6AD04FEA05
:100C00001262D2EB1363C1BFD21841404840414049
:100C1000B8BF5B42192B88BF704710F0004F40F4FB
:100C2000000020F07F4018BF404211F0004F41F417
:100C3000000121F07F4118BF494292EA030F3FD0E3
:100C4000A2F1010241FA03FC10EB0C00C3F12003F6
:100C500001FA03F100F0004302D5494260EB400085
:100C6000B0F5000F13D3B0F1807F06D340084FEAF0
:100C7000310102F10102FE2A51D2B1F1004F40EBE5
:100C8000C25008BF20F0010040EA0300704749004D
:100C900040EB0000013A28BFB0F5000FEDD2B0FAEA
:100CA00080FCACF1080CB2EB0C0200FA0CF0AABF0D
:100CB00000EBC25052421843BCBFD04018437047AB
:100CC00092F0000F81F4000106BF80F400000132B1
:100CD000013BB5E74FEA41037FEA226C18BF7FEA88
:100CE000236C21D092EA030F04D092F0000F08BFCA
:100CF0000846704790EA010F1CBF0020704712F0B1
:100D00007F4F04D1400028BF40F00040704712F1EF
:100D100000723CBF00F50000704700F0004343F054
:100D2000FE4040F4000070477FEA226216BF08468A
:100D30007FEA23630146420206BF5FEA412390EA4D
:100D4000010F40F4800070474FF0000304E000BF43
:100D500010F0004348BF40425FEA000C08BF7047F4
:100D600043F0964301464FF000001CE050EA0102B8
:100D700008BF70474FF000030AE000BF50EA0102CD
:100D800008BF704711F0004302D5404261EB4101BA
:100D90005FEA010C02BF84460146002043F0B643DF
:100DA00008BFA3F18053A3F50003BCFA8CF2083A04
:100DB000A3EBC25310DB01FA02FC634400FA02FC0D
:100DC000C2F12002BCF1004F20FA02F243EB020014
:100DD00008BF20F00100704702F1200201FA02FC76
:100DE000C2F1200250EA4C0021FA02F243EB020069
:100DF00008BF20EADC7070474FF0FF0C1CEAD052AD
:100E00001EBF1CEAD15392EA0C0F93EA0C0F6FD06D
:100E10001A4480EA010C400218BF5FEA41211ED04B
:100E20004FF0006343EA501043EA5111A0FB013137
:100E30000CF00040B1F5000F3EBF490041EAD3710C
:100E40005B0040EA010062F17F02FD2A1DD8B3F188
:100E5000004F40EBC25008BF20F00100704790F0F7
:100E6000000F0CF0004C08BF49024CEA502040EA49
:100E700051207F3AC2BFD2F1FF0340EAC25070470F
:100E800040F400004FF00003013A5DDC12F1190F4D
:100E9000DCBF00F000407047C2F10002410021FABF
:100EA00002F1C2F1200200FA02FC5FEA310040F1D7
:100EB000000053EA4C0308BF20EADC70704792F050
:100EC000000F00F0004C02BF400010F4000F013A88
:100ED000F9D040EA0C0093F0000F01F0004C02BF83
:100EE000490011F4000F013BF9D041EA0C018FE7F2
:100EF0000CEAD15392EA0C0F18BF93EA0C0F0AD0F8
:100F000030F0004C18BF31F0004CD8D180EA01001D
:100F100000F00040704790F0000F17BF90F0004FB6
:100F2000084691F0000F91F0004F14D092EA0C0F98
:100F300001D142020FD193EA0C0F03D14B0218BF2B
:100F4000084608D180EA010000F0004040F0FE4071
:100F500040F40000704740F0FE4040F4400070470D
:100F60004FF0FF0C1CEAD0521EBF1CEAD15392EA8C
:100F70000C0F93EA0C0F69D0A2EB030280EA010C7C
:100F800049024FEA402037D04FF0805343EA111115
:100F900043EA10130CF000408B4238BF5B0042F173
:100FA0007D024FF4000C8B4224BF5B1A40EA0C0018
:100FB000B3EB510F24BFA3EB510340EA5C00B3EB4A
:100FC000910F24BFA3EB910340EA9C00B3EBD10F38
:100FD00024BFA3EBD10340EADC001B0118BF5FEA8A
:100FE0001C1CE0D1FD2A3FF650AF8B4240EBC250B3
:100FF00008BF20F0010070470CF0004C4CEA502074
:101000007F32C2BFD2F1FF0340EAC250704740F4C2
:1010100000004FF00003013A37E792F0000F00F0B4
:10102000004C02BF400010F4000F013AF9D040EA32
:101030000C0093F0000F01F0004C02BF490011F4C6
:10104000000F013BF9D041EA0C0195E70CEAD153BE
:1010500092EA0C0F08D142027FF47DAF93EA0C0FA5
:101060007FF470AF084676E793EA0C0F04D14B0289
:101070003FF44CAF08466EE730F0004C18BF31F03B
:10108000004CCAD130F000427FF45CAF31F0004335
:081090007FF43CAF5FE700BFF5
:0400000508000111DD
:00000001FF
