:020000040800F2
:1000000000500020A15E0008255F0008275E000860
:10001000255F0008255F0008255F0008000000003C
:10002000000000000000000000000000D10D0008EA
:10003000255F000800000000DD0F00082710000801
:10004000255F0008255F0008255F0008255F000880
:10005000255F0008255F0008255F0008255F000870
:10006000255F0008255F0008255F0008255F000860
:10007000255F0008255F0008255F0008255F000850
:10008000255F0008255F0008255F0008255F000840
:10009000255F0008255F0008255F0008255F000830
:1000A000255F0008255F0008255F0008255F000820
:1000B000255F0008255F0008255F0008255F000810
:1000C000255F0008255F0008255F0008255F000800
:1000D000255F0008255F0008255F0008255F0008F0
:1000E000255F0008255F0008255F000880B582B005
:1000F00000AF182000F0EEFA78607B68002B07D084
:100100007B6800221A607B680433184600F058FDB3
:100110007B6818460837BD4680BD80B58CB000AFFF
:10012000F860B9607A603B60FB68BB6200237B6269
:100130007B6803F07F43002B0AD04FF0500383F31A
:100140001188BFF36F8FBFF34F8FBB6100BFFEE716
:100150007B68002B0AD14FF0500383F31188BFF363
:100160006F8FBFF34F8F7B6100BFFEE704F01CFC75
:100170000346002B02D13B68002B01D1012300E094
:100180000023002B0AD14FF0500383F31188BFF3F3
:100190006F8FBFF34F8F3B6100BFFEE703F028FD79
:1001A000BB6A1B683B62B968F86800F08EF93A6A6E
:1001B000BB681A437B6813407A689A420DD13A6A49
:1001C000BB681343FB62BB6A1A687B68DB431A4057
:1001D000BB6A1A6000233B6013E03B68002B0BD026
:1001E000BB6A181D7B6843F0A0633A68194604F0A7
:1001F0003DF80023FB6204E0BB6A1B68FB6201233D
:100200007B6203F003FDF8613B68002B2CD0FB6997
:10021000002B07D1174B4FF080521A60BFF34F8F5E
:10022000BFF36F8F04F0DEFBF862FB6A03F000732C
:10023000002B15D100F07AFEBB6A1B68FB62FA6ADC
:100240007B6813407A689A4206D1BB6A1A687B6859
:10025000DB431A40BB6A1A6000F098FE01237B6200
:10026000FB6A23F07F43FB62FB6A18463037BD46CA
:1002700080BD00BF04ED00E080B590B000AFF86035
:10028000B9607A603B60FB687B630023BB6300233B
:100290003B63FB68002B0AD14FF0500383F31188B6
:1002A000BFF36F8FBFF34F8F3B6200BFFEE7BB68AA
:1002B00003F07F43002B0AD04FF0500383F31188E3
:1002C000BFF36F8FBFF34F8FFB6100BFFEE7BB68CB
:1002D000002B0AD14FF0500383F31188BFF36F8FC7
:1002E000BFF34F8FBB6100BFFEE704F05DFB034629
:1002F000002B02D1BB6C002B01D1012300E00023B5
:10030000002B0AD14FF0500383F31188BFF36F8F96
:10031000BFF34F8F7B6100BFFEE703F069FC7B6B8F
:100320001B68FB623A68B968F86A00F0B2F9B86213
:10033000BB6A002B0ED0FB6AFB630023BB647B68A7
:10034000002B28D07B6B1A68BB68DB431A407B6BA1
:100350001A6020E0BB6C002B04D1FB6AFB63012315
:100360003B6318E07B68002B03D0BB6B43F08073CA
:10037000BB633B68002B03D0BB6B43F08063BB6364
:100380007B6B181DBA68BB6B1343BA6C194603F03C
:100390006DFF0023FB6303F039FC7862BB6C002B1C
:1003A00031D07B6A002B07D1194B4FF080521A6075
:1003B000BFF34F8FBFF36F8F04F014FBF863FB6B39
:1003C00003F00073002B1AD100F0B0FD7B6B1B68AB
:1003D000FB633A68B968F86B00F05BF90346002BE1
:1003E00009D07B68002B06D07B6B1A68BB68DB43A7
:1003F0001A407B6B1A6001233B6300F0C7FDFB6B67
:1004000023F07F43FB63FB6B18464037BD4680BD3E
:1004100004ED00E080B586B000AF786039607B689D
:100420007B617B68002B0AD14FF0500383F3118866
:10043000BFF36F8FBFF34F8FFB6000BFFEE73B68DA
:1004400003F07F43002B0AD04FF0500383F3118851
:10045000BFF36F8FBFF34F8FBB6000BFFEE700F0AD
:1004600065FD7B691B683B617B691A683B68DB4300
:100470001A407B691A6000F089FD3B6918461837FD
:10048000BD4680BD80B489B000AF78607B68FB61F9
:10049000EFF311824FF0500383F31188BFF36F8F96
:1004A000BFF34F8FFA60BB60FB68BB61FB691B68E1
:1004B0007B61BB693B613B6983F3118800BF7B694A
:1004C00018462437BD4680BC704780B58EB000AF5B
:1004D0007860396000233B637B68BB620023FB626A
:1004E0007B68002B0AD14FF0500383F31188BFF3D0
:1004F0006F8FBFF34F8F3B6100BFFEE73B6803F098
:100500007F43002B0AD04FF0500383F31188BFF3D1
:100510006F8FBFF34F8FFB6000BFFEE7BB6A0433F2
:100520007B627B6A08333B6203F062FB7B6ADB68B9
:100530007B63BB6A1A683B681A43BB6A1A603CE07B
:100540007B6B5B68FB617B6B1B68BB610023FB62A1
:10055000BB6903F07F437B61BB6923F07F43BB61D1
:100560007B6903F08063002B08D1BB6A1A68BB6902
:100570001340002B0BD00123FB6208E0BB6A1A6812
:10058000BB691340BA699A4201D10123FB62FB6A3D
:10059000002B10D07B6903F08073002B03D03A6BE3
:1005A000BB6913433B63BB6A1B6843F00073194686
:1005B000786B03F0CDFFFB697B637A6B3B6A9A42F1
:1005C000BED1BB6A1A683B6BDB431A40BB6A1A6038
:1005D00003F01CFBBB6A1B6818463837BD4680BD5C
:1005E00080B586B000AF78607B687B617B69002B4B
:1005F0000AD14FF0500383F31188BFF36F8FBFF31D
:100600004F8FFB6000BFFEE77B6904333B6103F063
:10061000EFFA17E03B69DA683B6908339A420AD17E
:100620004FF0500383F31188BFF36F8FBFF34F8FE9
:10063000BB6000BFFEE73B69DB684FF00071184606
:1006400003F086FF3B691B68002BE3D103F0DEFA61
:10065000786900F0FDF800BF1837BD4680BD80B551
:1006600082B000AF7860396039687868FFF72DFF95
:1006700000BF0837BD4680BD80B582B000AF78604E
:10068000396039687868FFF7C5FE00BF0837BD4696
:1006900080BD80B487B000AFF860B9607A60002395
:1006A0007B617B68002B07D1FA68BB681340002B85
:1006B0000AD001237B6107E0FA68BB681340BA687F
:1006C0009A4201D101237B617B6918461C37BD46E4
:1006D00080BC704780B58AB000AF78600023FB61B2
:1006E00003F086FA554B1B68002B01D100F056F938
:1006F0007B68002B12D008227B6803F00703D31A13
:100700000833BB61BB69DB437A689A4204D87A68D4
:10071000BB6913447B6001E000237B607B68002B96
:1007200070DB7B68002B6DD0454B1B687A689A4262
:1007300068D8444B3B62434B1B687B6204E07B6A96
:100740003B627B6A1B687B627B6A5B687A689A4261
:1007500003D97B6A1B68002BF1D1384B1B687A6A7E
:100760009A424FD03B6A1B6808221344FB617B6AA4
:100770001A683B6A1A607B6A5A687B68D21A082337
:100780005B009A421FD97A6A7B6813447B617B695C
:1007900003F00703002B0AD04FF0500383F31188B6
:1007A000BFF36F8FBFF34F8F3B6100BFFEE77B6AE4
:1007B0005A687B68D21A7B695A607B6A7A685A6089
:1007C000786900F047F91E4B1A687B6A5B68D31A98
:1007D0001B4A13601A4B1A681B4B1B689A4203D2C0
:1007E000174B1B68184A13607B6A5B6843F0004232
:1007F0007B6A5A607B6A00221A60144B1B680133C3
:10080000124A136003F002FAFB69002B01D105F0D4
:1008100001FBFB6903F00703002B0AD04FF05003E4
:1008200083F31188BFF36F8FBFF34F8FFB6000BF5F
:10083000FEE7FB6918462837BD4680BD402C0020E6
:10084000442C0020382C0020482C00204C2C002068
:1008500080B586B000AF78607B687B617B68002BD9
:1008600049D008235B427A6913447B617B693B6111
:100870003B695B68002B0ADB4FF0500383F3118860
:10088000BFF36F8FBFF34F8FFB6000BFFEE73B6985
:100890001B68002B0AD04FF0500383F31188BFF37D
:1008A0006F8FBFF34F8FBB6000BFFEE73B695B6894
:1008B000DB0F03F00103DBB2002B1CD03B691B688C
:1008C000002B18D13B695B6823F000423B695A60FA
:1008D00003F08EF93B695A68094B1B681344084AB8
:1008E0001360386900F0B6F8064B1B680133054AFF
:1008F000136003F08BF900BF1837BD4680BD00BF01
:10090000442C0020502C002080B400AF024B1B6808
:100910001846BD4680BC7047442C002080B400AF10
:10092000024B1B681846BD4680BC7047482C00200F
:1009300080B400AF00BFBD4680BC704780B584B0B6
:1009400000AF786039600023FB607B68002B09D022
:100950004FF0FF327B68B2FBF3F33A689A4201D959
:10096000012300E00023002B13D17B683A6802FBCF
:1009700003F31846FFF7AEFEF860FB68002B08D0C3
:100980007B683A6802FB03F31A460021F86807F017
:100990007BFCFB6818461037BD4680BD80B485B02F
:1009A00000AF4FF42053BB60254BFB60FB6803F0A6
:1009B0000703002B0CD0FB680733FB60FB6823F0B8
:1009C0000703FB60BA68FB68D31A1D4A1344BB6077
:1009D000FB687B601B4A7B6813601A4B00225A60DD
:1009E0007B68BA681344FB600822FB689B1AFB60B3
:1009F000FB6823F00703FB60FB68134A1360124B8C
:100A00001B6800225A60104B1B6800221A607B682A
:100A10003B603B68FA68D21A3B685A600A4B1A6816
:100A20003B681A603B685B68084A13603B685B6818
:100A3000074A136000BF1437BD4680BC704700BF33
:100A400038040020382C0020402C0020482C0020A6
:100A5000442C002080B485B000AF7860274BFB6049
:100A600002E0FB681B68FB60FB681B687A689A42BF
:100A7000F7D8FB68BB60FB685B68BA6813447A68A8
:100A80009A4208D1FB685A687B685B681A44FB6825
:100A90005A60FB687B607B68BB607B685B68BA6898
:100AA0001A44FB681B689A4218D1FB681A68144BF9
:100AB0001B689A420DD07B685A68FB681B685B68AC
:100AC0001A447B685A60FB681B681A687B681A6066
:100AD00008E00B4B1A687B681A6003E0FB681A6831
:100AE0007B681A60FA687B689A4202D0FB687A6871
:100AF0001A6000BF1437BD4680BC7047382C0020F8
:100B0000402C002080B586B000AF786000233B61A8
:100B10000023FB604FF0FF33BB6003F069F8224B0A
:100B20001B687B617B69002B1BD015E03B6901339F
:100B30003B617B695B68FA689A4202D27B695B68B9
:100B4000FB607B695B68BA689A4202D97B695B6823
:100B5000BB607B691B687B61144B1B687A699A4296
:100B6000E4D103F053F87B68FA685A607B68BA688E
:100B70009A607B683A69DA6000F0D8F90C4B1A6821
:100B80007B681A600B4B1A687B685A610A4B1A68BB
:100B90007B689A61094B1A687B681A6100F0F6F964
:100BA00000BF1837BD4680BD382C0020402C0020E7
:100BB000442C00204C2C0020502C0020482C0020DD
:100BC00080B483B000AF78607B6803F108027B6873
:100BD0005A607B684FF0FF329A607B6803F108022D
:100BE0007B68DA607B6803F108027B681A617B68C6
:100BF00000221A6000BF0C37BD4680BC704780B42D
:100C000083B000AF78607B6800221A6100BF0C37A8
:100C1000BD4680BC704780B485B000AF7860396055
:100C20007B685B68FB603B68FA685A60FB689A689F
:100C30003B689A60FB689B683A685A60FB683A6850
:100C40009A603B687A681A617B681B685A1C7B68EB
:100C50001A6000BF1437BD4680BC704780B485B0B1
:100C600000AF786039603B681B68BB60BB68B3F15C
:100C7000FF3F03D17B681B69FB600CE07B68083396
:100C8000FB6002E0FB685B68FB60FB685B681B68FD
:100C9000BA689A42F6D2FB685A683B685A603B6869
:100CA0005B683A689A603B68FA689A60FB683A68E1
:100CB0005A603B687A681A617B681B685A1C7B68BB
:100CC0001A6000BF1437BD4680BC704780B485B041
:100CD00000AF78607B681B69FB607B685B687A6843
:100CE00092689A607B689B687A6852685A60FB6871
:100CF0005B687A689A4203D17B689A68FB685A609D
:100D00007B6800221A61FB681B685A1EFB681A6028
:100D1000FB681B6818461437BD4680BC704700004E
:100D200080B485B000AFF860B9607A60FB68043BBE
:100D3000FB60FB684FF080721A60FB68043BFB604D
:100D4000BB6823F00102FB681A60FB68043BFB6090
:100D5000084AFB681A60FB68143BFB607A68FB6812
:100D60001A60FB68203BFB60FB6818461437BD46E1
:100D700080BC7047790D000880B485B000AF0023B7
:100D80007B60124B1B68B3F1FF3F0AD04FF050035A
:100D900083F31188BFF36F8FBFF34F8FFB6000BFEA
:100DA000FEE74FF0500383F31188BFF36F8FBFF35B
:100DB0004F8FBB6000BF00BF7B68002BFCD000BF23
:100DC00000BF1437BD4680BC704700BF0000002044
:100DD000074B19680868B0E8F00F80F30988BFF383
:100DE0006F8F4FF0000080F311884EF00D0E7047AA
:100DF0005C2C002000BF06480068006880F308886B
:100E000062B661B6BFF34F8FBFF36F8F00DF00BFD5
:100E100008ED00E000BF80B584B000AF314BFB604F
:100E2000FB681B78DBB27B60FB68FF221A70FB68F3
:100E30001B78DBB2FB70FB78DBB203F05003DAB255
:100E4000294B1A70294B07221A6009E0274B1B68AF
:100E5000013B264A1360FB78DBB25B00DBB2FB7020
:100E6000FB78DBB203F08003802BEFD01F4B1B68B5
:100E7000C3F10703042B0AD04FF0500383F311880A
:100E8000BFF36F8FBFF34F8FBB6000BFFEE7174B01
:100E90001B681B02154A1360144B1B6803F4E063C4
:100EA000124A13607B68DAB2FB681A70104B1B6839
:100EB0000F4A43F4700313600D4B1B680C4A43F058
:100EC0007043136000F0D2F80A4B00221A60FFF75B
:100ED00092FF03F027F9FFF74FFF00231846103762
:100EE000BD4680BD00E400E0542C0020582C0020BA
:100EF00020ED00E00000002080B483B000AF0A4B7A
:100F00001B68B3F57A7F0AD04FF0500383F3118842
:100F1000BFF36F8FBFF34F8F7B6000BFFEE700BF53
:100F20000C37BD4680BC70470000002080B483B001
:100F300000AF4FF0500383F31188BFF36F8FBFF3FF
:100F40004F8F7B6000BF0F4B1B6801330D4A13604E
:100F50000C4B1B68012B0FD10B4B1B68DBB2002B1A
:100F60000AD04FF0500383F31188BFF36F8FBFF3A4
:100F70004F8F3B6000BFFEE700BF0C37BD4680BC13
:100F8000704700BF0000002004ED00E080B483B093
:100F900000AF114B1B68002B0AD14FF0500383F3B5
:100FA0001188BFF36F8FBFF34F8F7B6000BFFEE7E9
:100FB000094B1B68013B084A1360074B1B68002B59
:100FC00005D100233B603B6883F3118800BF00BF5D
:100FD0000C37BD4680BC704700000020EFF309804D
:100FE000BFF36F8F0E4B1A6820E9F00F10602DE9E8
:100FF00008404FF0500080F3118803F093F84FF051
:10100000000080F31188BDE8084019680868B0E85E
:10101000F00F80F30988BFF36F8F7047AFF3008044
:101020005C2C002000BF80B582B000AF4FF05003B1
:1010300083F31188BFF36F8FBFF34F8F7B6000BFC7
:1010400002F05AFF0346002B03D0074B4FF08052AB
:101050001A6000233B603B6883F3118800BF00BF28
:101060000837BD4680BD00BF04ED00E080B400AF8E
:101070000A4B00221A600A4B00221A60094B1B68B7
:10108000094AA2FB03239B09084A013B1360034B57
:1010900007221A6000BFBD4680BC704710E000E028
:1010A00018E000E0C02D0020D34D621014E000E0F5
:1010B00080B485B000AFEFF30583FB60FB680F2BB6
:1010C00014D9164AFB6813441B78FB72144B1B7827
:1010D000FA7A9A420AD24FF0500383F31188BFF391
:1010E0006F8FBFF34F8F7B6000BFFEE70D4B1B6818
:1010F00003F4E0620C4B1B689A420AD94FF050038C
:1011000083F31188BFF36F8FBFF34F8F3B6000BF36
:10111000FEE700BF1437BD4680BC7047F0E300E037
:10112000542C00200CED00E0582C002080B586B037
:1011300000AF7860396001237B617B683B613B696C
:10114000002B0AD14FF0500383F31188BFF36F8F48
:10115000BFF34F8FFB6000BFFEE73B69002B5DD004
:101160003B69DB6B002B59D03B691A6C3B69DB6B2D
:101170000021A3FB0223002B00D001210B46002BF2
:101180004CD1FFF7D3FE3B691A683B69DB6B3969C9
:10119000096C01FB03F31A443B699A603B69002226
:1011A0009A633B691A683B695A603B691A683B69F4
:1011B000DB6B013B3969096C01FB03F31A443B69A2
:1011C000DA603B69FF2283F844203B69FF2283F801
:1011D00045203B68002B14D13B691B69002B1AD0BA
:1011E0003B691033184603F0DDF80346002B12D09C
:1011F000154B4FF080521A60BFF34F8FBFF36F8FC4
:1012000009E03B6910331846FFF7DAFC3B692433E9
:101210001846FFF7D5FCFFF7B9FE01E000237B611C
:101220007B69002B0AD14FF0500383F31188BFF381
:101230006F8FBFF34F8FBB6000BFFEE77B6918461F
:101240001837BD4680BD00BF04ED00E080B58AB010
:1012500002AFF860B9601346FB710023FB61FB68C5
:10126000002B2ED00021BA68FB68A3FB0223002BC1
:1012700000D001210B46002B23D1FB68BA6802FB8A
:1012800003F313F1490F1CD8FB68BA6802FB03F3A0
:10129000BB61BB6948331846FFF71CFAF861FB696C
:1012A000002B1CD0FB697B617B6948337B61FA7939
:1012B000FB69009313467A69B968F86800F014F87E
:1012C0000DE0FB69002B0AD14FF0500383F3118826
:1012D000BFF36F8FBFF34F8F3B6100BFFEE7FB692A
:1012E00018462037BD4680BD80B584B000AFF86099
:1012F000B9607A60FB70BB68002B03D1BB69BA6927
:101300001A6002E0BB697A681A60BB69FA68DA633E
:10131000BB69BA681A640121B869FFF707FF00BF0B
:101320001037BD4680BD80B58EB000AFF860B960A3
:101330007A603B6000237B63FB683B633B6B002B65
:101340000AD14FF0500383F31188BFF36F8FBFF3BF
:101350004F8FBB6200BFFEE7BB68002B03D13B6B26
:101360001B6C002B01D1012300E00023002B0AD1CC
:101370004FF0500383F31188BFF36F8FBFF34F8F8C
:101380007B6200BFFEE73B68022B03D13B6BDB6B4C
:10139000012B01D1012300E00023002B0AD14FF0E3
:1013A000500383F31188BFF36F8FBFF34F8F3B62FE
:1013B00000BFFEE703F0F8FA0346002B02D17B687A
:1013C000002B01D1012300E00023002B0AD14FF0B4
:1013D000500383F31188BFF36F8FBFF34F8FFB610F
:1013E00000BFFEE7FFF7A2FD3B6B9A6B3B6BDB6B2D
:1013F0009A4202D33B68022B29D13A68B968386B0C
:1014000000F0F3FDF8623B6B5B6A002B10D03B6B86
:101410002433184602F0C6FF0346002B13D0404B7E
:101420004FF080521A60BFF34F8FBFF36F8F0AE007
:10143000FB6A002B07D03A4B4FF080521A60BFF383
:101440004F8FBFF36F8FFFF7A1FD012363E07B6830
:10145000002B03D1FFF79AFD00235CE07B6B002B90
:1014600006D107F11403184603F058F901237B63F2
:10147000FFF78CFD02F0BCFBFFF758FD3B6B93F8C8
:1014800044305BB2B3F1FF3F03D13B6B002283F8E2
:1014900044203B6B93F845305BB2B3F1FF3F03D17F
:1014A0003B6B002283F84520FFF770FD3A1D07F1E2
:1014B00014031146184603F047F90346002B24D1C4
:1014C000386B00F09FFE0346002B18D03B6B1033A7
:1014D0007A681146184602F0A5FE386B00F007FE48
:1014E00002F094FB0346002B7FF47CAF0C4B4FF0D3
:1014F00080521A60BFF34F8FBFF36F8F72E7386B64
:1015000000F0F5FD02F082FB6CE7386B00F0EFFDB8
:1015100002F07CFB002318463837BD4680BD00BF73
:1015200004ED00E080B592B000AFF860B9607A6079
:101530003B60FB683B643B6C002B0AD14FF05003CF
:1015400083F31188BFF36F8FBFF34F8FFB6200BF30
:10155000FEE7BB68002B03D13B6C1B6C002B01D159
:10156000012300E00023002B0AD14FF0500383F346
:101570001188BFF36F8FBFF34F8FBB6200BFFEE7D1
:101580003B68022B03D13B6CDB6B012B01D10123A8
:1015900000E00023002B0AD14FF0500383F31188A1
:1015A000BFF36F8FBFF34F8F7B6200BFFEE7FFF784
:1015B0007FFDEFF311824FF0500383F31188BFF3E7
:1015C0006F8FBFF34F8F3A62FB613B6AFB633B6CEB
:1015D0009A6B3B6CDB6B9A4202D33B68022B46D181
:1015E0003B6C93F8453087F83B303B6C9B6B7B63DF
:1015F0003A68B968386C00F0F8FC97F93B30B3F101
:10160000FF3F12D13B6C5B6A002B2DD03B6C243327
:10161000184602F0C7FE0346002B25D07B68002B3E
:1016200022D07B6801221A601EE002F00BFC3863B6
:1016300097F93B303A6B9A4216D997F93B307F2B9A
:101640000AD14FF0500383F31188BFF36F8FBFF3BC
:101650004F8FBB6100BFFEE797F83B300133DBB231
:101660005AB23B6C83F8452001237B6401E00023E0
:101670007B64FB6B7B617B6983F3118800BF7B6CB0
:1016800018464837BD4680BD80B590B000AF786041
:1016900039607B68BB63BB6B002B0AD14FF05003F2
:1016A00083F31188BFF36F8FBFF34F8F7B6200BF4F
:1016B000FEE7BB6B1B6C002B0AD04FF0500383F38B
:1016C0001188BFF36F8FBFF34F8F3B6200BFFEE700
:1016D000BB6B1B68002B03D1BB6B9B68002B01D13C
:1016E000012300E00023002B0AD14FF0500383F3C5
:1016F0001188BFF36F8FBFF34F8FFB6100BFFEE711
:10170000FFF7D6FCEFF311824FF0500383F31188FB
:10171000BFF36F8FBFF34F8FBA617B61BB697B6390
:10172000BB6B9B6B3B63BB6BDB6B3A6B9A4242D2EE
:10173000BB6B93F8453087F82F303B6B5A1CBB6B63
:101740009A6397F92F30B3F1FF3F12D1BB6B5B6AFD
:10175000002B2DD0BB6B2433184602F023FE03462A
:10176000002B25D03B68002B22D03B6801221A6059
:101770001EE002F067FBB86297F92F30BA6A9A420E
:1017800016D997F92F307F2B0AD14FF0500383F3EE
:101790001188BFF36F8FBFF34F8F3B6100BFFEE730
:1017A00097F82F300133DBB25AB2BB6B83F8452078
:1017B0000123FB6301E00023FB637B6BFB60FB68A1
:1017C00083F3118800BFFB6B18464037BD4680BDD0
:1017D00080B58CB000AFF860B9607A600023FB621E
:1017E000FB68BB62BB6A002B0AD14FF0500383F346
:1017F0001188BFF36F8FBFF34F8F3B6200BFFEE7CF
:10180000BB68002B03D1BB6A1B6C002B01D10123E9
:1018100000E00023002B0AD14FF0500383F311881E
:10182000BFF36F8FBFF34F8FFB6100BFFEE703F085
:10183000BBF80346002B02D17B68002B01D10123AA
:1018400000E00023002B0AD14FF0500383F31188EE
:10185000BFF36F8FBFF34F8FBB6100BFFEE7FFF792
:1018600065FBBB6A9B6B7B627B6A002B1FD0B968F0
:10187000B86A00F016FC7B6A5A1EBB6A9A63BB6AA0
:101880001B69002B0FD0BB6A1033184602F08AFD8B
:101890000346002B07D03D4B4FF080521A60BFF338
:1018A0004F8FBFF36F8FFFF771FB012369E07B68F8
:1018B000002B03D1FFF76AFB002362E0FB6A002BD9
:1018C00006D107F11003184602F028FF0123FB623E
:1018D000FFF75CFB02F08CF9FFF728FBBB6A93F87B
:1018E00044305BB2B3F1FF3F03D1BB6A002283F8FF
:1018F0004420BB6A93F845305BB2B3F1FF3F03D19C
:10190000BB6A002283F84520FFF740FB3A1D07F130
:1019100010031146184602F017FF0346002B23D18F
:10192000B86A00F036FC0346002B17D0BB6A24339C
:101930007A681146184602F075FCB86A00F0D7FBC9
:1019400002F064F90346002B89D1104B4FF080520E
:101950001A60BFF34F8FBFF36F8F80E7B86A00F054
:10196000C6FB02F053F97AE7B86A00F0C0FB02F058
:101970004DF9B86A00F00DFC0346002B3FF46FAF41
:10198000002318463037BD4680BD00BF04ED00E09F
:1019900080B58AB000AF7860396000237B627B68D5
:1019A0003B623B6A002B0AD14FF0500383F311884E
:1019B000BFF36F8FBFF34F8FBB6100BFFEE73B6A82
:1019C0001B6C002B0AD04FF0500383F31188BFF338
:1019D0006F8FBFF34F8F7B6100BFFEE702F0E4FF24
:1019E0000346002B02D13B68002B01D1012300E00C
:1019F0000023002B0AD14FF0500383F31188BFF36B
:101A00006F8FBFF34F8F3B6100BFFEE7FFF78EFA8A
:101A10003B6A9B6BFB61FB69002B1BD0FB695A1E69
:101A20003B6A9A633B6A1B69002B0FD03B6A1033F9
:101A3000184602F0B7FC0346002B07D03C4B4FF092
:101A400080521A60BFF34F8FBFF36F8FFFF79EFA7C
:101A5000012369E03B68002B03D1FFF797FA0023CD
:101A600062E07B6A002B06D107F10803184602F0FA
:101A700055FE01237B62FFF789FA02F0B9F8FFF700
:101A800055FA3B6A93F844305BB2B3F1FF3F03D1A0
:101A90003B6A002283F844203B6A93F845305BB2EE
:101AA000B3F1FF3F03D13B6A002283F84520FFF7E3
:101AB0006DFA3A4607F108031146184602F044FE53
:101AC0000346002B23D1386A00F063FB0346002B4A
:101AD00017D03B6A24333A681146184602F0A2FB3D
:101AE000386A00F004FB02F091F80346002B8DD118
:101AF0000F4B4FF080521A60BFF34F8FBFF36F8FC1
:101B000084E7386A00F0F3FA02F080F87EE7386A7A
:101B100000F0EDFA02F07AF8386A00F03AFB03467A
:101B2000002B3FF473AF002318462837BD4680BD15
:101B300004ED00E080B58EB000AFF860B9607A6067
:101B400000237B63FB683B633B6B002B0AD14FF0A8
:101B5000500383F31188BFF36F8FBFF34F8F7B6206
:101B600000BFFEE7BB68002B03D13B6B1B6C002B57
:101B700001D1012300E00023002B0AD14FF05003D4
:101B800083F31188BFF36F8FBFF34F8F3B6200BFAA
:101B9000FEE702F009FF0346002B02D17B68002B11
:101BA00001D1012300E00023002B0AD14FF05003A4
:101BB00083F31188BFF36F8FBFF34F8FFB6100BFBB
:101BC000FEE7FFF7B3F93B6B9B6BFB62FB6A002BF5
:101BD00021D03B6BDB68BB62B968386B00F061FAFF
:101BE0003B6BBA6ADA603B6B5B6A002B0FD03B6BD6
:101BF0002433184602F0D6FB0346002B07D03D4B9A
:101C00004FF080521A60BFF34F8FBFF36F8FFFF713
:101C1000BDF9012369E07B68002B03D1FFF7B6F91A
:101C2000002362E07B6B002B06D107F114031846FA
:101C300002F074FD01237B63FFF7A8F901F0D8FFE0
:101C4000FFF774F93B6B93F844305BB2B3F1FF3F9D
:101C500003D13B6B002283F844203B6B93F8453063
:101C60005BB2B3F1FF3F03D13B6B002283F8452009
:101C7000FFF78CF93A1D07F114031146184602F0DC
:101C800063FD0346002B23D1386B00F082FA034634
:101C9000002B17D03B6B24337A681146184602F0AC
:101CA000C1FA386B00F023FA01F0B0FF0346002BB5
:101CB00087D1104B4FF080521A60BFF34F8FBFF3A4
:101CC0006F8F7EE7386B00F012FA01F09FFF78E724
:101CD000386B00F00CFA01F099FF386B00F059FAFC
:101CE0000346002B3FF46DAF002318463837BD463E
:101CF00080BD00BF04ED00E080B590B000AFF8609B
:101D0000B9607A60FB68BB63BB6B002B0AD14FF0F4
:101D1000500383F31188BFF36F8FBFF34F8F7B6244
:101D200000BFFEE7BB68002B03D1BB6B1B6C002B15
:101D300001D1012300E00023002B0AD14FF0500312
:101D400083F31188BFF36F8FBFF34F8F3B6200BFE8
:101D5000FEE7FFF7ADF9EFF311824FF0500383F385
:101D60001188BFF36F8FBFF34F8FFA61BB61FB69BF
:101D70007B63BB6B9B6B3B633B6B002B46D0BB6BAE
:101D800093F8443087F82F30B968B86B00F089F9C0
:101D90003B6B5A1EBB6B9A6397F92F30B3F1FF3F31
:101DA00012D1BB6B1B69002B2DD0BB6B10331846B7
:101DB00002F0F8FA0346002B25D07B68002B22D0D6
:101DC0007B6801221A601EE002F03CF8B86297F9C5
:101DD0002F30BA6A9A4216D997F92F307F2B0AD141
:101DE0004FF0500383F31188BFF36F8FBFF34F8F12
:101DF0007B6100BFFEE797F82F300133DBB25AB2A8
:101E0000BB6B83F844200123FB6301E00023FB63E9
:101E10007B6B3B613B6983F3118800BFFB6B18460A
:101E20004037BD4680BD80B58CB000AF786039606A
:101E30007B68BB62BB6A002B0AD14FF0500383F36F
:101E40001188BFF36F8FBFF34F8FFB6100BFFEE7B9
:101E50003B68002B03D1BB6A1B6C002B01D1012313
:101E600000E00023002B0AD14FF0500383F31188C8
:101E7000BFF36F8FBFF34F8FBB6100BFFEE7BB6A3D
:101E80001B6C002B0AD14FF0500383F31188BFF372
:101E90006F8FBFF34F8F7B6100BFFEE7FFF708F93D
:101EA000EFF311824FF0500383F31188BFF36F8F6C
:101EB000BFF34F8F3A61FB603B697B62BB6A9B6BF0
:101EC000002B0CD0BB6ADB683B623968B86A00F053
:101ED000E8F8BB6A3A6ADA600123FB6201E000239A
:101EE000FB627B6ABB60BB6883F3118800BFFB6A3F
:101EF00018463037BD4680BD80B584B000AF7860ED
:101F00007B68002B0AD14FF0500383F31188BFF395
:101F10006F8FBFF34F8FBB6000BFFEE7FFF706F880
:101F20007B689B6BFB60FFF731F8FB681846103746
:101F3000BD4680BD80B586B000AF78607B687B61B0
:101F40007B69002B0AD14FF0500383F31188BFF354
:101F50006F8FBFF34F8FFB6000BFFEE7FEF7E6FF1A
:101F60007B69DA6B7B699B6BD31A3B61FFF70EF8D9
:101F70003B6918461837BD4680BD80B487B000AFB6
:101F800078607B687B617B69002B0AD14FF050033E
:101F900083F31188BFF36F8FBFF34F8FFB6000BFD8
:101FA000FEE77B699B6B3B613B6918461C37BD466E
:101FB00080BC704780B584B000AF78607B68FB6000
:101FC000FB68002B0AD14FF0500383F31188BFF355
:101FD0006F8FBFF34F8FBB6000BFFEE7F868FEF75F
:101FE00037FC00BF1037BD4680BD80B586B000AF5E
:101FF000F860B9607A6000233B61FB689B6B7B6192
:10200000FB681B6C002B43D07B68002B19D1FB684D
:102010005868FB681B6C1A46B96804F0E5FFFB685A
:102020005A68FB681B6C1A44FB685A60FB685A6864
:10203000FB689B689A422BD3FB681A68FB685A605E
:1020400026E0FB68D868FB681B6C1A46B96804F088
:10205000CBFFFB68DA68FB681B6C5B421A44FB68C9
:10206000DA60FB68DA68FB681B689A4207D2FB6893
:102070009A68FB681B6C5B421A44FB68DA607B68F9
:10208000022B05D17B69002B02D07B69013B7B6170
:102090007B695A1CFB689A633B6918461837BD4632
:1020A00080BD80B582B000AF786039607B681B6C02
:1020B000002B18D07B68DA687B681B6C1A447B683D
:1020C000DA607B68DA687B689B689A4203D37B6836
:1020D0001A687B68DA607B68D9687B681B6C1A4673
:1020E000386804F081FF00BF0837BD4680BD80B569
:1020F00084B000AF7860FEF719FF7B6893F8453035
:10210000FB7311E07B685B6A002B12D07B68243381
:10211000184602F047F90346002B01D002F07AFB83
:10212000FB7B013BDBB2FB7397F90F30002BE9DC43
:1021300000E000BF7B68FF2283F84520FEF726FF02
:10214000FEF7F4FE7B6893F84430BB7311E07B68C4
:102150001B69002B12D07B681033184602F022F95D
:102160000346002B01D002F055FBBB7B013BDBB2E9
:10217000BB7397F90E30002BE9DC00E000BF7B68F1
:10218000FF2283F84420FEF701FF00BF1037BD4651
:1021900080BD80B584B000AF7860FEF7C7FE7B6875
:1021A0009B6B002B02D10123FB6001E00023FB604D
:1021B000FEF7ECFEFB6818461037BD4680BD80B4C4
:1021C00087B000AF78607B683B613B69002B0AD128
:1021D0004FF0500383F31188BFF36F8FBFF34F8F1E
:1021E000FB6000BFFEE73B699B6B002B02D1012324
:1021F0007B6101E000237B617B6918461C37BD468B
:1022000080BC704780B584B000AF7860FEF78EFE6A
:102210007B689A6B7B68DB6B9A4202D10123FB607F
:1022200001E00023FB60FEF7B1FEFB6818461037A3
:10223000BD4680BD80B487B000AF78607B683B61ED
:102240003B69002B0AD14FF0500383F31188BFF391
:102250006F8FBFF34F8FFB6000BFFEE73B699A6B48
:102260003B69DB6B9A4202D101237B6101E00023D1
:102270007B617B6918461C37BD4680BC704780B5C2
:1022800086B000AFF860B9607A60FB687B61FEF7EA
:102290004DFE7B6993F844305BB2B3F1FF3F03D14D
:1022A0007B69002283F844207B6993F845305BB258
:1022B000B3F1FF3F03D17B69002283F84520FEF78D
:1022C00065FE7B699B6B002B06D17B6924337A68A2
:1022D000B968184602F020F87869FFF708FF00BFD8
:1022E0001837BD4680BD00BF80B58EB004AFF86022
:1022F000B9607A603B607B68012B10D1012387F8BD
:102300002330FB68042B1BD84FF0500383F3118854
:10231000BFF36F8FBFF34F8FFB6100BFFEE700235A
:1023200087F82330FB68002B0AD14FF0500383F36A
:102330001188BFF36F8FBFF34F8FBB6100BFFEE704
:10234000BA68FB689A420AD94FF0500383F31188A8
:10235000BFF36F8FBFF34F8F7B6100BFFEE7BB689A
:10236000002B01D10123BB60FB6813F1220F09D8B8
:10237000FB680133FB60FB6820331846FEF7AAF9BF
:10238000786201E000237B627B6A002B0ED07B6ABF
:1023900003F120013B6B02933B68019397F82330D4
:1023A0000093BB68FA68786A00F0D6FD7B6A18462D
:1023B0002837BD4680BD80B584B000AF78607B68AB
:1023C000FB60FB68002B0AD14FF0500383F31188A8
:1023D000BFF36F8FBFF34F8FBB6000BFFEE7FB689B
:1023E0001B7F03F00203002B03D1F868FEF730FADD
:1023F00004E020220021F86805F046FF00BF1037F6
:10240000BD4680BD90B58DB004AF78607B68BB6180
:102410000023FB6100237B6100233B61BB69002B30
:102420000AD14FF0500383F31188BFF36F8FBFF3CE
:102430004F8FFB6000BFFEE7FEF778FDBB691B69AD
:10244000002B17D1BB695B69002B13D1BB6999695C
:10245000BB699868BB69DC68BB691B7F3A690292FB
:102460007A690192009323460246B86900F074FD30
:102470000123FB61FEF78AFDFB6918462437BD4640
:1024800090BD80B487B000AF786039607B683B61F5
:102490003B69002B0AD14FF0500383F31188BFF33F
:1024A0006F8FBFF34F8FFB6000BFFEE73B68002BD1
:1024B00001D101233B603B699B683A689A4205D28F
:1024C0003B693A68DA6001237B6101E000237B61AC
:1024D0007B6918461C37BD4680BC704780B487B006
:1024E00000AF78607B683B613B69002B0AD14FF0FD
:1024F000500383F31188BFF36F8FBFF34F8FBB601F
:1025000000BFFEE73B691B68FB603B699A683B695B
:102510001B6813447B613B695B687A69D31A7B61F2
:102520003B691B68FA689A42ECD17B69013B7B618D
:102530003B699B687A699A4204D33B699B687A69D4
:10254000D31A7B617B6918461C37BD4680BC704737
:1025500080B586B000AF78607B687B617B69002BBB
:102560000AD14FF0500383F31188BFF36F8FBFF38D
:102570004F8FFB6000BFFEE7786900F0CEFC38614A
:102580003B6918461837BD4680BD80B592B002AF92
:10259000F860B9607A603B60FB687B630023FB6393
:1025A0007B68BB6300233B63BB68002B0AD14FF001
:1025B000500383F31188BFF36F8FBFF34F8FBB625C
:1025C00000BFFEE77B6B002B0AD14FF0500383F373
:1025D0001188BFF36F8FBFF34F8F7B6200BFFEE7A1
:1025E0007B6B9B68013B3B637B6B1B7F03F00103B1
:1025F000002B18D0BB6B0433BB63BA6B7B689A4269
:102600000AD84FF0500383F31188BFF36F8FBFF3E5
:102610004F8F3B6200BFFEE7BA6B3B6B9A4208D913
:1026200000233B6005E0BA6B3B6B9A4201D93B6BE0
:10263000BB633B68002B41D007F11403184602F03E
:1026400047F8FEF773FC786BFFF748FFF863FA6B07
:10265000BB6B9A4218D20021002002F05FFE7B6B18
:102660005B69002B0AD04FF0500383F31188BFF34E
:102670006F8FBFF34F8FFB6100BFFEE702F086F95B
:1026800002467B6B5A6102E0FEF780FC16E0FEF723
:102690007DFC3B680093002300220021002002F013
:1026A00025FA7B6B00225A613A4607F11403114662
:1026B000184602F049F80346002BC2D0FB6B002BF2
:1026C00003D1786BFFF70AFFF863BB6B0093FB6BDA
:1026D0007A68B968786B00F098F8F862FB6A002BAA
:1026E0001BD0786B00F019FC02467B6BDB689A42CA
:1026F00013D301F07DFA7B6B1B69002B0BD07B6B36
:1027000018690023009300230022002102F072FACE
:102710007B6B00221A6101F079FAFB6A1846403798
:10272000BD4680BD80B590B002AFF860B9607A60F8
:102730003B60FB683B637B687B63BB68002B0AD113
:102740004FF0500383F31188BFF36F8FBFF34F8FA8
:102750003B6200BFFEE73B6B002B0AD14FF05003FA
:1027600083F31188BFF36F8FBFF34F8FFB6100BFFF
:10277000FEE73B6B1B7F03F00103002B02D07B6B5A
:1027800004337B63386BFFF7A9FEF8627B6B009321
:10279000FB6A7A68B968386B00F037F8B862BB6AD0
:1027A000002B2DD0386B00F0B8FB02463B6BDB688A
:1027B0009A4225D3EFF311824FF0500383F311882F
:1027C000BFF36F8FBFF34F8FBA617B61BB697B62D1
:1027D0003B6B1B69002B0DD03B6B18693B68019369
:1027E0000023009300230022002102F02DFB3B6B0D
:1027F00000221A617B6A3B613B6983F3118800BF49
:10280000BB6A18463837BD4680BD80B588B000AF7A
:10281000F860B9607A603B60FB685B68FB61FB68ED
:102820001B7F03F00103002B20D07B687B617B6959
:102830007A689A420AD04FF0500383F31188BFF3AD
:102840006F8FBFF34F8FBB6100BFFEE73A68BB6A73
:102850009A4208D307F11401FB690422F86800F0DA
:1028600085FAF86108E000237B6005E07A683B6840
:10287000934228BF13467B607B68002B08D0FB691E
:102880007A68B968F86800F071FA0246FB685A6025
:102890007B6818462037BD4680BD80B58EB002AF3C
:1028A000F860B9607A603B60FB683B620023FB62C2
:1028B000BB68002B0AD14FF0500383F31188BFF39C
:1028C0006F8FBFF34F8FFB6100BFFEE73B6A002BAA
:1028D0000AD14FF0500383F31188BFF36F8FBFF31A
:1028E0004F8FBB6100BFFEE73B6A1B7F03F0010314
:1028F000002B02D004237B6201E000237B623B6853
:10290000002B37D0FEF712FB386A00F006FBB862E6
:10291000BA6A7B6A9A4217D80021002002F0FEFCB6
:102920003B6A1B69002B0AD04FF0500383F31188D8
:10293000BFF36F8FBFF34F8F7B6100BFFEE702F0E5
:1029400025F802463B6A1A61FEF720FBBA6A7B6AE9
:102950009A4213D83B6800930023002200210020F4
:1029600002F0C4F83B6A00221A61386A00F0D5FA16
:10297000B86203E0386A00F0D0FAB862BA6A7B6ADB
:102980009A421DD9BB6A7A68B968386A00F0D0F8F3
:10299000F862FB6A002B13D001F02AF9FB685B692F
:1029A000002B0BD0FB685869002300930023002202
:1029B000002102F01FF9FB6800225A6101F026F99C
:1029C000FB6A18463037BD4680BD80B588B000AF81
:1029D00078607B68BB61BB69002B0AD14FF0500364
:1029E00083F31188BFF36F8FBFF34F8F3B6100BF3D
:1029F000FEE7BB691B7F03F00103002B22D0B869FF
:102A000000F08BFA78617B69042B0AD9BB691B68DB
:102A100007F108010422B86900F015FABB68FB61F0
:102A200012E07B69002B0AD04FF0500383F311882A
:102A3000BFF36F8FBFF34F8FFB6000BFFEE7002334
:102A4000FB6101E00023FB61FB6918462037BD46AE
:102A500080BD80B590B002AFF860B9607A603B602D
:102A6000FB68FB6200237B63BB68002B0AD14FF03D
:102A7000500383F31188BFF36F8FBFF34F8F3B6217
:102A800000BFFEE7FB6A002B0AD14FF0500383F32F
:102A90001188BFF36F8FBFF34F8FFB6100BFFEE75D
:102AA000FB6A1B7F03F00103002B02D004233B636E
:102AB00001E000233B63F86A00F02FFAB862BA6ABB
:102AC0003B6B9A422FD9BB6A7A68B968F86A00F002
:102AD0002FF878637B6B002B25D0EFF311824FF03A
:102AE000500383F31188BFF36F8FBFF34F8FBA6129
:102AF0007B61BB697B62FB6A5B69002B0DD0FB6A63
:102B000058693B68019300230093002300220021B1
:102B100002F09AF9FB6A00225A617B6A3B613B69C9
:102B200083F3118800BF7B6B18463837BD4680BDE4
:102B300080B588B000AFF860B9607A603B60FB6830
:102B40001B68BB61FB681B7F03F00103002B13D0E4
:102B500007F11001BB690422F86800F074F9B8614C
:102B60003B69FB613B68043B3B60FA697B689A42C6
:102B700004D90023FB6101E07B68FB613A68FB69D3
:102B8000934228BF13467B617B69002B08D0BB6949
:102B90007A69B968F86800F056F90246FB681A606D
:102BA0007B6918462037BD4680BD80B487B000AF32
:102BB00078607B683B613B69002B0AD14FF0500382
:102BC00083F31188BFF36F8FBFF34F8FBB6000BFDC
:102BD000FEE73B691B68FB603B695B68FA689A42E9
:102BE00002D101237B6101E000237B617B691846F0
:102BF0001C37BD4680BC704780B586B000AF78609A
:102C00007B68FB60FB68002B0AD14FF0500383F315
:102C10001188BFF36F8FBFF34F8FBB6000BFFEE71C
:102C2000FB681B7F03F00103002B02D004233B61F0
:102C300001E000233B617868FFF750FC02463B69E6
:102C4000934202D301237B6101E000237B617B6916
:102C500018461837BD4680BD80B58CB002AF78608D
:102C600039607B683B623B6A002B0AD14FF050030E
:102C700083F31188BFF36F8FBFF34F8FBB6100BF2A
:102C8000FEE7EFF311824FF0500383F31188BFF397
:102C90006F8FBFF34F8F7A613B617B69FB613B6A4A
:102CA0001B69002B10D03B6A18693B680193002315
:102CB000009300230022002102F0C6F83B6A0022A4
:102CC0001A6101237B6201E000237B62FB69FB60E8
:102CD000FB6883F3118800BF7B6A18462837BD461E
:102CE00080BD80B58CB002AF786039607B683B6294
:102CF0003B6A002B0AD14FF0500383F31188BFF3D6
:102D00006F8FBFF34F8FBB6100BFFEE7EFF3118200
:102D10004FF0500383F31188BFF36F8FBFF34F8FD2
:102D20007A613B617B69FB613B6A5B69002B10D078
:102D30003B6A58693B6801930023009300230022FB
:102D4000002102F081F83B6A00225A6101237B6274
:102D500001E000237B62FB69FB60FB6883F3118861
:102D600000BF7B6A18462837BD4680BD80B588B055
:102D700000AFF860B9607A603B607B68002B0AD1D5
:102D80004FF0500383F31188BFF36F8FBFF34F8F62
:102D9000BB6100BFFEE7FB689A683B68D31A7A689C
:102DA000934228BF1346FB613A68FB691A44FB68EB
:102DB0009B689A420AD94FF0500383F31188BFF3FE
:102DC0006F8FBFF34F8F7B6100BFFEE7FB689A698F
:102DD0003B681344FA69B968184604F005F97A6843
:102DE000FB699A421CD97A68FB69D21AFB689B6816
:102DF0009A420AD94FF0500383F31188BFF36F8FC3
:102E0000BFF34F8F3B6100BFFEE7FB689869BA686C
:102E1000FB69D1187A68FB69D31A1A4604F0E4F802
:102E20003A687B6813443B60FB689B683A689A4247
:102E300004D3FB689B683A68D31A3B603B6818462A
:102E40002037BD4680BD80B588B000AFF860B9605E
:102E50007A603B607B68002B0AD14FF0500383F30C
:102E60001188BFF36F8FBFF34F8FBB6100BFFEE7C9
:102E7000FB689A683B68D31A7A68934228BF134666
:102E8000FB61FA697B689A420AD94FF0500383F3D9
:102E90001188BFF36F8FBFF34F8F7B6100BFFEE7D9
:102EA0003A68FB691A44FB689B689A420AD94FF05A
:102EB000500383F31188BFF36F8FBFF34F8F3B61D4
:102EC00000BFFEE7FB689A693B681344FA6919463C
:102ED000B86804F089F87A68FB699A420AD9BA6836
:102EE000FB69D018FB6899697A68FB69D31A1A469E
:102EF00004F07AF83A687B6813443B60FB689B688F
:102F00003A689A4204D3FB689B683A68D31A3B60DC
:102F10003B6818462037BD4680BD80B485B000AF01
:102F200078607B689A687B685B681344FB607B68A9
:102F30001B68FA68D31AFB607B689B68FA689A4240
:102F400004D37B689B68FA68D31AFB60FB68184659
:102F50001437BD4680BC704780B586B000AFF860BE
:102F6000B9607A603B6055237B617A687969B8689B
:102F700005F08AF90246BB6893420AD04FF050032D
:102F800083F31188BFF36F8FBFF34F8F3B6100BF97
:102F9000FEE720220021F86805F076F9FB68BA68A0
:102FA0009A61FB687A689A60FB683A68DA60FB6845
:102FB00097F820201A7700BF1837BD4680BD000063
:102FC00080B58CB004AFF860B9603B601346FB80FD
:102FD000FB889B001846FDF77DFB78617B69002B21
:102FE00013D04C20FDF776FBF861FB69002B08D06D
:102FF0004C220021F86905F047F9FB697A691A63E8
:1030000005E07869FDF724FC01E00023FB61FB6922
:10301000002B13D0FA8800230393FB690293FB6A09
:103020000193BB6A00933B68B968F86800F00EF83A
:10303000F86900F096F80123BB6102E04FF0FF331E
:10304000BB61BB6918462037BD4680BD80B588B0DE
:1030500000AFF860B9607A603B603B6B186B7B68CF
:103060009B001A46A52105F00FF93B6B1A6B7B6894
:1030700003F18043013B9B001344BB61BB6923F018
:103080000703BB61BB6903F00703002B0AD04FF0B5
:10309000500383F31188BFF36F8FBFF34F8F7B61B2
:1030A00000BFFEE7BB68002B1ED00023FB6112E0CF
:1030B000BA68FB69134419783A6BFB6913443433DB
:1030C0000A461A70BA68FB6913441B78002B06D0B5
:1030D000FB690133FB61FB690F2BE9D900E000BFFD
:1030E0003B6B002283F84320BB6A042B0AD94FF0C4
:1030F000500383F31188BFF36F8FBFF34F8F3B6192
:1031000000BFFEE7BB6A042B01D90423BB623B6B03
:10311000BA6ADA623B6B04331846FDF770FD3B6B0D
:1031200018331846FDF76BFD3B6B3A6B1A61BB6AAF
:10313000C3F105023B6B9A613B6B3A6B5A623A688A
:10314000F968B869FDF7ECFD02463B6B1A60FB6A53
:10315000002B02D0FB6A3A6B1A6000BF2037BD46D5
:1031600080BD80B584B000AF7860FDF7DFFE3F4BD7
:103170001B6801333D4A13603D4B1B68002B09D18E
:103180003B4A7B681360394B1B68012B10D101F05F
:1031900065FB0DE0374B1B68002B09D1344B1B68D6
:1031A000DA6A7B68DB6A9A4202D8314A7B6813602C
:1031B000314B1B680133304A13607B68DB6A0122A4
:1031C0009A402E4B1B6813432C4A13607B68DA6AC3
:1031D0002B4913469B0013449B000B4404331B688C
:1031E000FB607B68FA689A60FB689A687B68DA60C3
:1031F000FB689B687A6804325A607B681A1DFB681A
:103200009A607B68DA6A13469B0013449B001C4A51
:103210001A447B685A617B68DA6A194913469B0035
:1032200013449B000B441B68591C154813469B0014
:1032300013449B0003441960FDF7A8FE0D4B1B6867
:10324000002B0ED00A4B1B68DA6A7B68DB6A9A4255
:1032500007D20C4B4FF080521A60BFF34F8FBFF371
:103260006F8F00BF1037BD4680BD00BF342D0020DA
:103270005C2C0020402D0020502D00203C2D0020F3
:10328000602C002004ED00E080B584B000AF7860D1
:10329000FDF74CFE7B68002B02D13B4B1B6800E026
:1032A0007B68FB60FB6804331846FDF70FFD03469F
:1032B000002B15D1FB68DA6A344913469B0013448E
:1032C0009B000B441B68002B0AD1FB68DB6A0122C0
:1032D00002FA03F3DA432E4B1B6813402C4A1360A7
:1032E000FB689B6A002B04D0FB6818331846FDF777
:1032F000EDFC284B1B680133264A1360224B1B68E8
:10330000FA689A420BD1FB68043319462248FDF74C
:1033100082FC224B1B680133204A136006E0204BDD
:103320001B68013B1E4A136001F016FBFDF72EFEE1
:10333000154B1B68FA689A4202D0F86801F0FCFA53
:10334000184B1B68002B1BD00F4B1B68FA689A4266
:1033500016D1154B1B68002B0AD04FF0500383F396
:103360001188BFF36F8FBFF34F8FBB6000BFFEE7C5
:103370000E4B4FF080521A60BFF34F8FBFF36F8F29
:1033800000BF1037BD4680BD5C2C0020602C0020A3
:103390003C2D0020502D0020082D00201C2D002049
:1033A000342D0020402D00205C2D002004ED00E095
:1033B00080B58AB000AF7860396000237B627B689B
:1033C000002B0AD14FF0500383F31188BFF36F8FA6
:1033D000BFF34F8F7B6100BFFEE73B68002B0AD134
:1033E0004FF0500383F31188BFF36F8FBFF34F8FFC
:1033F0003B6100BFFEE72A4B1B68002B0AD04FF051
:10340000500383F31188BFF36F8FBFF34F8FFB60BF
:1034100000BFFEE700F0ECFB224B1B683B627B68C1
:103420001B683A681344FB617B681B683A6A9A42DE
:103430000BD27B681B68FA699A4211D2FA693B6A1F
:103440009A420DD901237B620AE07B681B68FA6906
:103450009A4203D3FA693B6A9A4201D901237B62FB
:103460007B68FA691A607B6A002B06D0FA693B6AAE
:10347000D31A0021184601F0BBFF00F0C7FBB8616A
:10348000BB69002B07D1084B4FF080521A60BFF385
:103490004F8FBFF36F8F7B6A18462837BD4680BDBC
:1034A0005C2D0020382D002004ED00E080B584B0B4
:1034B00000AF78600023FB607B68002B17D0134BB4
:1034C0001B68002B0AD04FF0500383F31188BFF321
:1034D0006F8FBFF34F8FBB6000BFFEE700F088FB2C
:1034E0000021786801F084FF00F090FBF860FB6831
:1034F000002B07D1064B4FF080521A60BFF34F8F5D
:10350000BFF36F8F00BF1037BD4680BD5C2D00201C
:1035100004ED00E080B584B000AF7860FDF706FDF3
:103520007B68002B02D1074B1B6800E07B68FB60C7
:10353000FB68DB6ABB60FDF729FDBB6818461037E6
:10354000BD4680BD5C2C002080B588B000AF78609F
:10355000FDF7AEFDEFF311824FF0500383F31188B6
:10356000BFF36F8FBFF34F8F3A61FB603B69FB6125
:103570007B68002B02D1094B1B6800E07B68BB61B4
:10358000BB69DB6A7B61FB69BB60BB6883F3118845
:1035900000BF7B6918462037BD4680BD5C2C0020EB
:1035A00080B588B000AF786039600023FB613B686C
:1035B000042B0AD94FF0500383F31188BFF36F8FA8
:1035C000BFF34F8FBB6000BFFEE73B68042B01D900
:1035D00004233B60FDF7AAFC7B68002B02D1514B12
:1035E0001B6800E07B68BB61BB69DB6A7B617A6951
:1035F0003B689A4200F08F803A687B699A420DD905
:10360000484B1B68BA699A420FD0464B1B68DB6A6D
:103610003A689A4209D30123FB6106E0414B1B68DB
:10362000BA699A4201D10123FB61BB69DB6A3B6144
:10363000BB693A68DA62BB699B69002B04DB3B68B3
:10364000C3F10502BB699A61BB6959693A691346BE
:103650009B0013449B00344A1344994250D1BB69E8
:1036600004331846FDF732FB0346002B09D1012233
:103670003B6902FA03F3DA432C4B1B6813402B4AD5
:103680001360BB69DB6A01229A40284B1B68134315
:10369000264A1360BB69DA6A234913469B00134428
:1036A0009B000B4404331B68FB60BB69FA689A609B
:1036B000FB689A68BB69DA60FB689B68BA69043288
:1036C0005A60BB691A1DFB689A60BB69DA6A1346C7
:1036D0009B0013449B00144A1A44BB695A61BB699E
:1036E000DA6A114913469B0013449B000B441B6884
:1036F000591C0D4813469B0013449B00034419605A
:10370000FB69002B07D00A4B4FF080521A60BFF3C1
:103710004F8FBFF36F8FFDF739FC00BF2037BD46D9
:1037200080BD00BF5C2C0020602C00203C2D0020C0
:1037300004ED00E080B586B000AF7860FDF7F6FBE1
:103740007B68002B02D1434B1B6800E07B683B6128
:103750003B6904331846FDF7B9FA0346002B15D12F
:103760003B69DA6A3C4913469B0013449B000B44B7
:103770001B68002B0AD13B69DB6A012202FA03F3C2
:10378000DA43364B1B681340344A13603B699B6A2B
:10379000002B04D03B6918331846FDF797FA3B69B4
:1037A000043319462E48FDF736FA00237B6110E0FA
:1037B0003A697B69134448331B78DBB2012B05D18E
:1037C0003A697B691344483300221A707B690133DC
:1037D0007B617B69002BEBDDFDF7D8FB214B1B6880
:1037E000002B05D0FDF7A2FB01F0B6F8FDF7CEFBEC
:1037F000184B1B683A699A4227D11A4B1B68002B59
:1038000017D0194B1B68002B0AD04FF0500383F3DD
:103810001188BFF36F8FBFF34F8FFB6000BFFEE7D0
:10382000124B4FF080521A60BFF34F8FBFF36F8F70
:103830000BE00B4B1A680E4B1B689A4203D1054BE9
:1038400000221A6001E000F06DFC00BF1837BD4691
:1038500080BD00BF5C2C0020602C00203C2D00208F
:10386000202D0020402D00205C2D002004ED00E0E4
:10387000342D002080B487B000AF786000237B61D6
:103880007B683B617B68002B0AD14FF0500383F3C8
:103890001188BFF36F8FBFF34F8FFB6000BFFEE750
:1038A0003B695B69094A93420AD13B699B6A084AB2
:1038B000934205D03B699B6A002B01D101237B61B8
:1038C0007B6918461C37BD4680BC7047202D002000
:1038D000F42C002080B586B000AF78607B687B61F7
:1038E0007B68002B0AD14FF0500383F31188BFF39C
:1038F0006F8FBFF34F8FFB6000BFFEE7344B1B6839
:103900007A699A425FD07B69002B5CD0FDF70EFB91
:103910007869FFF7AFFF0346002B52D07B69043371
:103920001846FDF7D3F97B69DB6A01229A40294BDF
:103930001B681343274A13607B69DA6A26491346DA
:103940009B0013449B000B4404331B683B617B6961
:103950003A699A603B699A687B69DA603B699B685F
:103960007A6904325A607B691A1D3B699A607B69E7
:10397000DA6A13469B0013449B00174A1A447B697A
:103980005A617B69DA6A144913469B0013449B0011
:103990000B441B68591C104813469B0013449B00A2
:1039A000034419607B69DA6A094B1B68DB6A9A4237
:1039B00007D30A4B4FF080521A60BFF34F8FBFF30B
:1039C0006F8FFDF7E3FA00BF1837BD4680BD00BF1B
:1039D0005C2C00203C2D0020602C002004ED00E039
:1039E00080B58AB000AF786000237B627B683B6261
:1039F0007B68002B0AD14FF0500383F31188BFF38B
:103A00006F8FBFF34F8F7B6100BFFEE7FDF750FB69
:103A1000EFF311824FF0500383F31188BFF36F8FE0
:103A2000BFF34F8F3A61FB603B69FB61386AFFF778
:103A300021FF0346002B5AD0324B1B68002B50D17C
:103A40003B6ADA6A304B1B68DB6A9A4204D3012373
:103A50007B622E4B01221A603B6A04331846FDF745
:103A600035F93B6ADB6A01229A40294B1B681343F4
:103A7000274A13603B6ADA6A264913469B001344BF
:103A80009B000B4404331B68BB613B6ABA699A60B4
:103A9000BB699A683B6ADA60BB699B683A6A043220
:103AA0005A603B6A1A1DBB699A603B6ADA6A134620
:103AB0009B0013449B00174A1A443B6A5A613B6AB5
:103AC000DA6A144913469B0013449B000B441B689D
:103AD000591C104813469B0013449B000344196073
:103AE00005E03B6A183319460B48FDF794F8FB696B
:103AF000BB60BB6883F3118800BF7B6A1846283718
:103B0000BD4680BD5C2D00205C2C0020482D00208F
:103B10003C2D0020602C0020F42C002080B586B0C5
:103B200002AF204B019300230093002380221E4903
:103B30001E48FFF745FAF860FB68012B02D101F03F
:103B4000D7FCF860FB68012B16D14FF0500383F3CC
:103B50001188BFF36F8FBFF34F8FBB6000BF144B53
:103B60004FF0FF321A60134B01221A60124B0022F1
:103B70001A60FDF750F90EE0FB68B3F1FF3F0AD180
:103B80004FF0500383F31188BFF36F8FBFF34F8F54
:103B90007B6000BFFEE7094B1B6800BF1037BD46C6
:103BA00080BD00BF582D00206C8200082D48000801
:103BB000542D0020402D0020382D0020040000202E
:103BC00080B582B000AF4FF0500383F31188BFF38C
:103BD0006F8FBFF34F8F7B6000BF044B00221A60D2
:103BE000FDF78AF900BF0837BD4680BD402D002093
:103BF00080B400AF044B1B680133034A136000BF5D
:103C0000BD4680BC704700BF5C2D002080B588B0E9
:103C100000AF0023FB610023BB61714B1B68002BCD
:103C20000AD14FF0500383F31188BFF36F8FBFF3B6
:103C30004F8F7B6000BFFEE7FDF778F9684B1B688C
:103C4000013B674A1360664B1B68002B40F0C08045
:103C5000644B1B68002B00F0BB808AE0624BDB6882
:103C6000DB68FB61FB699B6A3B61FB69DB69FA69A5
:103C7000126A9A60FB691B6AFA69D2695A603B69E9
:103C80005A68FB6918339A4203D1FB691A6A3B6987
:103C90005A60FB6900229A623B691B685A1E3B69A5
:103CA0001A60FB695B69FB60FB699B68FA69D26813
:103CB0009A60FB69DB68FA6992685A60FB685A6827
:103CC000FB6904339A4203D1FB69DA68FB685A60E6
:103CD000FB6900225A61FB681B685A1EFB681A6068
:103CE000FB69DB6A01229A40404B1B6813433F4A41
:103CF0001360FB69DA6A3E4913469B0013449B003C
:103D00000B4404331B68BB60FB69BA689A60BB68EC
:103D10009A68FB69DA60BB689B68FA6904325A608A
:103D2000FB691A1DBB689A60FB69DA6A13469B003F
:103D300013449B002E4A1A44FB695A61FB69DA6AF4
:103D40002B4913469B0013449B000B441B68591CD2
:103D5000274813469B0013449B0003441960FB69EA
:103D6000DA6A244B1B68DB6A9A4202D3224B012297
:103D70001A601D4B1B68002B7FF470AFFB69002B92
:103D800001D000F0E9FD1D4B1B687B617B69002BB6
:103D900010D000F0B1F80346002B02D0164B0122E0
:103DA0001A607B69013B7B617B69002BF1D1134B6E
:103DB00000221A60104B1B68002B09D00123BB6145
:103DC0000F4B4FF080521A60BFF34F8FBFF36F8FCE
:103DD000FDF7DCF8BB6918462037BD4680BD00BF43
:103DE0005C2D0020342D0020F42C00203C2D0020E0
:103DF000602C00205C2C0020482D0020442D002049
:103E000004ED00E080B483B000AF044B1B687B601E
:103E10007B6818460C37BD4680BC7047382D0020A3
:103E200080B582B000AFFDF743F900237B60044BFF
:103E30001B683B603B6818460837BD4680BD00BF25
:103E4000382D002080B400AF024B1B681846BD46D9
:103E500080BC7047342D002080B485B000AF7860FE
:103E60007B68002B02D10D4B1B6800E07B68FB6078
:103E7000FB68002B0AD14FF0500383F31188BFF386
:103E80006F8FBFF34F8FBB6000BFFEE7FB6834331B
:103E900018461437BD4680BC704700BF5C2C00201C
:103EA00080B584B000AF7860114B1B68002B0AD03E
:103EB0004FF0500383F31188BFF36F8FBFF34F8F21
:103EC000BB6000BFFEE7FFF793FEFDF72FF8094B3D
:103ED0001A687B681344074A1360FDF757F8FFF729
:103EE00095FEF860FB6818461037BD4680BD00BFE0
:103EF0005C2D0020442D002080B58AB000AF002347
:103F00007B627D4B1B68002B40F0EC807B4B1B6879
:103F100001333B62794A3B6A13603B6A002B20D134
:103F2000774B1B681B68002B0AD04FF0500383F3BC
:103F30001188BFF36F8FBFF34F8F7B6000BFFEE729
:103F40006F4B1B68FB616F4B1B686D4A13606D4ABA
:103F5000FB6913606C4B1B6801336B4A136000F004
:103F6000FBFC6A4B1B683A6A9A42C0F0A680644B1D
:103F70001B681B68002B04D1644B4FF0FF321A60A2
:103F80009BE05F4B1B68DB68DB68BB61BB695B6800
:103F90007B613A6A7B699A4203D25C4A7B6913600F
:103FA0008BE0BB695B693B61BB699B68BA69D2689E
:103FB0009A60BB69DB68BA6992685A603B695A6863
:103FC000BB6904339A4203D1BB69DA683B695A6022
:103FD000BB6900225A613B691B685A1E3B691A6023
:103FE000BB699B6A002B1ED0BB699B6AFB60BB69E7
:103FF000DB69BA69126A9A60BB691B6ABA69D269DD
:104000005A60FB685A68BB6918339A4203D1BB698E
:104010001A6AFB685A60BB6900229A62FB681B68D7
:104020005A1EFB681A60BB69DB6A01229A40384B52
:104030001B681343364A1360BB69DA6A3549134675
:104040009B0013449B000B4404331B68BB60BB699B
:10405000BA689A60BB689A68BB69DA60BB689B689B
:10406000BA6904325A60BB691A1DBB689A60BB69A1
:10407000DA6A13469B0013449B00264A1A44BB6924
:104080005A61BB69DA6A234913469B0013449B00BB
:104090000B441B68591C1F4813469B0013449B008C
:1040A00003441960BB69DA6A1B4B1B68DB6A9A42DE
:1040B0007FF65DAF01237B6259E7174B1B68DA6A15
:1040C000144913469B0013449B000B441B68012BAF
:1040D00001D901237B62114B1B68002B07D0012300
:1040E0007B6204E00E4B1B6801330D4A13607B6A50
:1040F00018462837BD4680BD5C2D0020382D002095
:10410000EC2C0020F02C00204C2D0020542D002001
:104110003C2D0020602C00205C2C0020482D00202D
:10412000442D002080B588B000AF394B1B68002BB0
:1041300003D0384B01221A6066E0364B00221A6029
:10414000354B1B681B6BFB614FF0A533BB61FB69F3
:104150001B68BA699A4211D1FB6904331B68BA69BA
:104160009A420BD1FB6908331B68BA699A4205D1A0
:10417000FB690C331B68BA699A4208D0264B1A684F
:10418000254B1B6834331946104601F046FE234B7D
:104190001B68FB60FB68B3FA83F3FB72FB7AC3F125
:1041A0001F037B611E497A6913469B0013449B00E1
:1041B0000B441B68002B0AD14FF0500383F3118886
:1041C000BFF36F8FBFF34F8F7B6000BFFEE77A694D
:1041D00013469B0013449B00114A13443B613B6907
:1041E0005B685A683B695A603B695A683B690833A7
:1041F0009A4204D13B695B685A683B695A603B69E3
:104200005B68DB68044A136000BF2037BD4680BD91
:104210005C2D0020482D00205C2C00203C2D00202F
:10422000602C002080B584B000AF786039607B6876
:10423000002B0AD14FF0500383F31188BFF36F8F27
:10424000BFF34F8FFB6000BFFEE7074B1B681833BF
:1042500019467868FCF702FD0121386801F0C8F8BA
:1042600000BF1037BD4680BD5C2C002080B588B0F3
:1042700000AFF860B9607A60FB68002B0AD14FF09C
:10428000500383F31188BFF36F8FBFF34F8FBB6170
:1042900000BFFEE71E4B1B68002B0AD14FF05003F6
:1042A00083F31188BFF36F8FBFF34F8F7B6100BF24
:1042B000FEE7184B1B68BA6842F000429A61FB683F
:1042C0005B68FB61134B1B68FA69DA61114B1B6871
:1042D000FA6992681A620F4B1A68FB699B68183278
:1042E0005A600C4B1B6803F11802FB699A60094B7A
:1042F0001B68FA689A62FB681B685A1CFB681A60A4
:104300000121786801F074F800BF2037BD4680BDF8
:104310005C2D00205C2C002080B586B000AFF860DA
:10432000B9607A60FB68002B0AD14FF0500383F329
:104330001188BFF36F8FBFF34F8F3B6100BFFEE764
:10434000FB685B687B61164B1B687A69DA61144B0A
:104350001B687A6992681A62114B1A687B699B68BC
:1043600018325A600E4B1B6803F118027B699A6081
:104370000B4B1B68FA689A62FB681B685A1CFB6847
:104380001A607B68002B02D04FF0FF33BB60796866
:10439000B86801F02DF800BF1837BD4680BD00BFDA
:1043A0005C2C002080B48BB000AF78607B68DB6849
:1043B000DB683B623B6A002B0AD14FF0500383F36A
:1043C0001188BFF36F8FBFF34F8FFB6000BFFEE715
:1043D0003B6A9B6AFB613B6ADB693A6A126A9A60D4
:1043E0003B6A1B6A3A6AD2695A60FB695A683B6A3F
:1043F00018339A4203D13B6A1A6AFB695A603B6AD6
:1044000000229A62FB691B685A1EFB691A604A4BBC
:104410001B68002B5ED13B6A5B697B613B6A9B68D2
:104420003A6AD2689A603B6ADB683A6A92685A6074
:104430007B695A683B6A04339A4203D13B6ADA6863
:104440007B695A603B6A00225A617B691B685A1E6D
:104450007B691A603B6ADB6A01229A40374B1B6812
:104460001343364A13603B6ADA6A354913469B00A8
:1044700013449B000B4404331B683B613B6A3A695D
:104480009A603B699A683B6ADA603B699B683A6A62
:1044900004325A603B6A1A1D3B699A603B6ADA6AC9
:1044A00013469B0013449B00254A1A443B6A5A61F9
:1044B0003B6ADA6A224913469B0013449B000B4473
:1044C0001B68591C1E4813469B0013449B00034461
:1044D00019601BE01B4B5B68BB613B6ABA69DA6120
:1044E000BB699A683B6A1A62BB699B683A6A183270
:1044F0005A603B6A03F11802BB699A603B6A114A31
:104500009A62104B1B6801330E4A13603B6ADA6AE9
:104510000D4B1B68DB6A9A4205D901237B620B4B6A
:1045200001221A6001E000237B627B6A18462C3767
:10453000BD4680BC704700BF5C2D00203C2D002094
:10454000602C0020F42C00205C2C0020482D002042
:1045500080B489B000AF78603960584B1B68002B7D
:104560000AD14FF0500383F31188BFF36F8FBFF36D
:104570004F8FFB6000BFFEE73B6843F000427B6863
:104580001A607B68DB68FB61FB69002B0AD14FF086
:10459000500383F31188BFF36F8FBFF34F8FBB605E
:1045A00000BFFEE77B681B69BB617B685B687A685C
:1045B00092689A607B689B687A6852685A60BB69A7
:1045C0005B687A689A4203D17B689A68BB695A60D3
:1045D0007B6800221A61BB691B685A1EBB691A609E
:1045E000FB695B697B61FB699B68FA69D2689A60C9
:1045F000FB69DB68FA6992685A607B695A68FB69F3
:1046000004339A4203D1FB69DA687B695A60FB691B
:1046100000225A617B691B685A1E7B691A60FB691C
:10462000DB6A01229A40264B1B681343244A13601D
:10463000FB69DA6A234913469B0013449B000B4431
:1046400004331B683B61FB693A699A603B699A686D
:10465000FB69DA603B699B68FA6904325A60FB695E
:104660001A1D3B699A60FB69DA6A13469B00134482
:104670009B00144A1A44FB695A61FB69DA6A1149C2
:1046800013469B0013449B000B441B68591C0D48A8
:1046900013469B0013449B0003441960FB69DA6ACC
:1046A000094B1B68DB6A9A4202D9084B01221A6047
:1046B00000BF2437BD4680BC704700BF5C2D002082
:1046C0003C2D0020602C00205C2C0020482D002078
:1046D00080B584B000AF78607B68002B0AD14FF0C2
:1046E000500383F31188BFF36F8FBFF34F8FFB60CD
:1046F00000BFFEE7FCF71AFC064B1A687B681A60DD
:10470000054B1A687B685A60FCF740FC00BF103705
:10471000BD4680BD4C2D0020382D002080B483B0D4
:1047200000AF7860064B1A687B681A60054B1A6800
:104730007B685A6000BF0C37BD4680BC704700BF25
:104740004C2D0020382D002080B588B000AF786057
:1047500039607B68002B0AD14FF0500383F3118836
:10476000BFF36F8FBFF34F8F3B6100BFFEE73B6826
:10477000002B0AD14FF0500383F31188BFF36F8FE2
:10478000BFF34F8FFB6000BFFEE7FCF7CFFB1F4B73
:104790001B68BB617B685B68BA69D31A7B613B6845
:1047A0001B68B3F1FF3F02D10023FB6126E07B6869
:1047B0001A68174B1B689A420AD07B685B68BA6913
:1047C0009A4205D30123FB613B6800221A6015E081
:1047D0003B681B687A699A420BD23B681A687B690E
:1047E000D21A3B681A607868FFF798FF0023FB61D4
:1047F00004E03B6800221A600123FB61FCF7C6FB62
:10480000FB6918462037BD4680BD00BF382D00200B
:104810004C2D002080B400AF034B01221A6000BF72
:10482000BD4680BC704700BF482D002080B582B0D7
:1048300000AF786000F052F8064B1B68012BF9D9E5
:10484000054B4FF080521A60BFF34F8FBFF36F8F4D
:10485000F0E700BF602C002004ED00E080B582B0DE
:1048600000AF00237B600CE07A6813469B00134482
:104870009B00124A13441846FCF7A2F97B680133E7
:104880007B607B68042BEFD90D48FCF799F90D4844
:10489000FCF796F90C48FCF793F90C48FCF790F9F3
:1048A0000B48FCF78DF90B4B054A1A600A4B054A79
:1048B0001A6000BF0837BD4680BD00BF602C0020D5
:1048C000C42C0020D82C0020F42C0020082D00201F
:1048D000202D0020EC2C0020F02C002080B582B090
:1048E00000AF19E0FCF722FB104BDB68DB687B6054
:1048F0007B6804331846FCF7E9F90D4B1B68013B54
:104900000B4A13600B4B1B68013B0A4A1360FCF710
:104910003DFB786800F010F8064B1B68002BE1D1D6
:1049200000BF00BF0837BD4680BD00BF082D002076
:10493000342D00201C2D002080B582B000AF78609F
:104940007B681B6B1846FBF783FF7868FBF780FFDB
:1049500000BF0837BD4680BD80B400AF094B1B685F
:104960001B68002B04D1084B4FF0FF321A6005E0A2
:10497000044B1B68DB681B68034A136000BFBD461D
:1049800080BC7047EC2C0020542D002080B483B0F4
:1049900000AF044B1B687B607B6818460C37BD4634
:1049A00080BC70475C2C002080B483B000AF0B4B00
:1049B0001B68002B02D101237B6008E0084B1B68B9
:1049C000002B02D102237B6001E000237B607B6827
:1049D00018460C37BD4680BC704700BF402D0020F4
:1049E0005C2D002080B483B000AF094B1B689B692D
:1049F0007B60074B1B68DA6A054B1B68C2F1050236
:104A00009A617B6818460C37BD4680BC704700BF72
:104A10005C2C002080B586B000AFF860B9607A6089
:104A2000FB68002B0AD04FF0500383F31188BFF3CB
:104A30006F8FBFF34F8F3B6100BFFEE7FCF776FA45
:104A4000284B1A68FB6810339B0013445B68002BEB
:104A500015D1244B1A68FB681344483301221A709D
:104A60007B68002B0BD00121786800F0C1FC1E4B45
:104A70004FF080521A60BFF34F8FBFF36F8FFCF778
:104A800085FAFCF753FA174B1A68FB6810339B0042
:104A900013445B687B617B69002B14D0BB68002BDF
:104AA00008D0104B1A68FB6810339B001344002297
:104AB0005A6008E00B4B19687B695A1EFB6810337B
:104AC0009B000B445A60074B1A68FB681344483339
:104AD00000221A70FCF75AFA7B6918461837BD464F
:104AE00080BD00BF5C2C002004ED00E080B586B0E6
:104AF00000AFF860B9607A603B60FB68002B0AD0B9
:104B00004FF0500383F31188BFF36F8FBFF34F8FC4
:104B10003B6100BFFEE7FCF709FA344B1A68FB68FB
:104B2000134448331B78DBB2022B24D02F4B1A6876
:104B3000FB6810339B0013445968BB68DB43194082
:104B4000FB6810339B0013445960284B1A68FB68BC
:104B50001344483301221A703B6A002B0BD0012109
:104B6000386A00F045FC224B4FF080521A60BFF3C8
:104B70004F8FBFF36F8FFCF709FAFCF7D7F93B684B
:104B8000002B08D0194B1A68FB6810339B001344A4
:104B90005A683B681A60154B1A68FB68134448331F
:104BA0001B78DBB2022B02D000237B6110E00F4B9D
:104BB0001A68FB6810339B00134459687B68DB4319
:104BC0001940FB6810339B001344596001237B613B
:104BD000064B1A68FB681344483300221A70FCF72E
:104BE000D5F97B6918461837BD4680BD5C2C00207E
:104BF00004ED00E080B58EB000AFF860B9607A6077
:104C0000FB7001237B63BB68002B0AD04FF050037D
:104C100083F31188BFF36F8FBFF34F8F3B6200BFE9
:104C2000FEE7FB68002B0AD14FF0500383F3118895
:104C3000BFF36F8FBFF34F8FFB6100BFFEE7FB68D1
:104C40003B63FCF773F93B6C002B07D03A6BBB68F6
:104C500010339B0013445A683B6C1A603A6BBB6874
:104C6000134448331B7887F82F303A6BBB681344E2
:104C7000483302221A70FB78042B41D801A252F863
:104C800023F000BF1F4D0008994C0008B74C0008E6
:104C9000D34C0008E34C00083A6BBB6810339B0010
:104CA00013445A687B681A43396BBB6810339B0006
:104CB0000B445A6036E03A6BBB6810339B001344D8
:104CC0005B685A1C396BBB6810339B000B445A60FD
:104CD00028E03A6BBB6810339B0013447A685A6033
:104CE00020E097F82F30022B07D03A6BBB681033C7
:104CF0009B0013447A685A6014E000237B6311E040
:104D00004C4B1B68002B0CD04FF0500383F31188E1
:104D1000BFF36F8FBFF34F8FBB6100BFFEE700BFD4
:104D200000E000BF97F82F30012B7BD13B6B5B6914
:104D3000BB623B6B9B683A6BD2689A603B6BDB68EB
:104D40003A6B92685A60BB6A5A683B6B04339A426A
:104D500003D13B6BDA68BB6A5A603B6B00225A6135
:104D6000BB6A1B685A1EBB6A1A603B6BDB6A012276
:104D70009A40314B1B6813432F4A13603B6BDA6A2E
:104D80002E4913469B0013449B000B4404331B68BD
:104D90007B623B6B7A6A9A607B6A9A683B6BDA60EB
:104DA0007B6A9B683A6B04325A603B6B1A1D7B6AC4
:104DB0009A603B6BDA6A13469B0013449B001F4AC0
:104DC0001A443B6B5A613B6BDA6A1C4913469B00E1
:104DD00013449B000B441B68591C184813469B0046
:104DE00013449B00034419603B6B9B6A002B0AD061
:104DF0004FF0500383F31188BFF36F8FBFF34F8FD2
:104E00007B6100BFFEE73B6BDA6A0D4B1B68DB6A18
:104E10009A4207D90B4B4FF080521A60BFF34F8F65
:104E2000BFF36F8FFCF7B2F87B6B18463837BD467F
:104E300080BD00BF382D00203C2D0020602C0020BC
:104E40005C2C002004ED00E080B592B000AFF8606B
:104E5000B9607A60FB7001237B64FB68002B0AD188
:104E60004FF0500383F31188BFF36F8FBFF34F8F61
:104E7000BB6200BFFEE7BB68002B0AD04FF05003B7
:104E800083F31188BFF36F8FBFF34F8F7B6200BF37
:104E9000FEE7FCF70DF9FB683B64EFF311824FF07E
:104EA000500383F31188BFF36F8FBFF34F8F3A62C4
:104EB000FB613B6AFB633B6D002B07D03A6CBB6820
:104EC00010339B0013445A683B6D1A603A6CBB6800
:104ED000134448331B7887F83B303A6CBB68134463
:104EE000483302221A70FB78042B41D801A252F8F1
:104EF00023F000BF8F4F0008094F0008274F00081C
:104F0000434F0008534F00083A6CBB6810339B00B6
:104F100013445A687B681A43396CBB6810339B0092
:104F20000B445A6036E03A6CBB6810339B00134464
:104F30005B685A1C396CBB6810339B000B445A6089
:104F400028E03A6CBB6810339B0013447A685A60BF
:104F500020E097F83B30022B07D03A6CBB68103347
:104F60009B0013447A685A6014E000237B6411E0CC
:104F70005F4B1B68002B0CD04FF0500383F311885C
:104F8000BFF36F8FBFF34F8FBB6100BFFEE700BF62
:104F900000E000BF97F83B30012B40F09E803B6C57
:104FA0009B6A002B0AD04FF0500383F31188BFF3A4
:104FB0006F8FBFF34F8F7B6100BFFEE74D4B1B68C8
:104FC000002B5ED13B6C5B693B633B6C9B683A6C2E
:104FD000D2689A603B6CDB683A6C92685A603B6BB3
:104FE0005A683B6C04339A4203D13B6CDA683B6BE2
:104FF0005A603B6C00225A613B6B1B685A1E3B6B2C
:105000001A603B6CDB6A01229A403B4B1B681343DE
:10501000394A13603B6CDA6A384913469B001344E3
:105020009B000B4404331B68FB623B6CFA6A9A607A
:10503000FB6A9A683B6CDA60FB6A9B683A6C0432E4
:105040005A603B6C1A1DFB6A9A603B6CDA6A134625
:105050009B0013449B00294A1A443B6C5A613B6CE9
:10506000DA6A264913469B0013449B000B441B68D5
:10507000591C224813469B0013449B0003441960AB
:105080001BE01F4B5B687B633B6C7A6BDA617B6B6D
:105090009A683B6C1A627B6B9B683A6C18325A6058
:1050A0003B6C03F118027B6B9A603B6C144A9A626A
:1050B000134B1B680133124A13603B6CDA6A114BC5
:1050C0001B68DB6A9A4208D97B6D002B02D07B6D8E
:1050D00001221A600C4B01221A60FB6B3B613B6999
:1050E00083F3118800BF7B6C18464837BD4680BDEE
:1050F000382D00205C2D00203C2D0020602C00204D
:10510000F42C00205C2C0020482D002080B590B0AD
:1051100000AFF860B9607A60FB68002B0AD14FF0ED
:10512000500383F31188BFF36F8FBFF34F8F7B6200
:1051300000BFFEE7BB68002B0AD04FF0500383F39B
:105140001188BFF36F8FBFF34F8F3B6200BFFEE745
:10515000FBF7AEFFFB68FB63EFF311824FF05003E8
:1051600083F31188BFF36F8FBFF34F8FFA61BB6179
:10517000FB69BB63FA6BBB68134448331B7887F841
:105180003730FA6BBB681344483302221A70FA6B4B
:10519000BB6810339B0013445B685A1CF96BBB68F7
:1051A00010339B000B445A6097F83730012B40F0C6
:1051B0009E80FB6B9B6A002B0AD04FF0500383F359
:1051C0001188BFF36F8FBFF34F8F7B6100BFFEE786
:1051D0004C4B1B68002B5ED1FB6B5B69FB62FB6B6E
:1051E0009B68FA6BD2689A60FB6BDB68FA6B92681B
:1051F0005A60FB6A5A68FB6B04339A4203D1FB6B1B
:10520000DA68FB6A5A60FB6B00225A61FB6A1B6812
:105210005A1EFB6A1A60FB6BDB6A01229A403A4B0A
:105220001B681343384A1360FB6BDA6A374913462D
:105230009B0013449B000B4404331B68BB62FB6B55
:10524000BA6A9A60BB6A9A68FB6BDA60BB6A9B6851
:10525000FA6B04325A60FB6B1A1DBB6A9A60FB6BD7
:10526000DA6A13469B0013449B00284A1A44FB6BDE
:105270005A61FB6BDA6A254913469B0013449B0075
:105280000B441B68591C214813469B0013449B0088
:10529000034419601BE01E4B5B683B63FB6B3A6B7E
:1052A000DA613B6B9A68FB6B1A623B6B9B68FA6B2B
:1052B00018325A60FB6B03F118023B6B9A60FB6B70
:1052C000134A9A62124B1B680133114A1360FB6B3D
:1052D000DA6A104B1B68DB6A9A4208D97B68002B9C
:1052E00002D07B6801221A600B4B01221A60BB6B53
:1052F0003B613B6983F3118800BF00BF4037BD4667
:1053000080BD00BF5C2D00203C2D0020602C0020C3
:10531000F42C00205C2C0020482D002080B586B0A5
:1053200000AF786039603B68002B0AD04FF0500323
:1053300083F31188BFF36F8FBFF34F8FFB6000BF04
:10534000FEE77B68002B02D1104B1B6800E07B68F6
:105350003B61FBF7EBFD3A693B68134448331B782C
:10536000DBB2022B08D13A693B6813444833002270
:105370001A7001237B6101E000237B61FBF706FECD
:105380007B6918461837BD4680BD00BF5C2C0020E5
:1053900080B586B000AFF860B9607A60FB68002B1A
:1053A00002D1124B1B6800E0FB687B61FBF7BEFD7E
:1053B0007A69BB6810339B0013445B683B617A6970
:1053C000BB6810339B0013445A687B68DB431A4068
:1053D0007969BB6810339B000B445A60FBF7D6FD1C
:1053E0003B6918461837BD4680BD00BF5C2C0020C5
:1053F00080B586B000AF78603960364B1B687B6142
:10540000354B1B6804331846FBF760FC0346002B42
:105410000BD1314B1B68DB6A012202FA03F3DA433A
:105420002E4B1B6813402D4A13607B68B3F1FF3F7E
:1054300024D13B68002B21D0294B5B683B61264B74
:105440001B683A699A60244B1B683A699268DA6073
:10545000214B1A683B699B6804325A601E4B1B68DB
:105460001A1D3B699A601C4B1B681D4A5A611C4BF4
:105470001B6801331A4A136000BF26E07A697B6813
:105480001344FB60144B1B68FA685A60FA687B6926
:105490009A4209D2134B1A680F4B1B680433194602
:1054A0001046FBF7DBFB10E00F4B1A680A4B1B683A
:1054B000043319461046FBF7D1FB0C4B1B68FA6806
:1054C0009A4202D2094AFB68136000BF1837BD46F2
:1054D00080BD00BF382D00205C2C00203C2D00201A
:1054E000202D0020F02C0020EC2C0020542D00203A
:1054F00080B584B002AF00237B6000F0C1FB114B8C
:105500001B68002B0AD0104B019302230093002349
:1055100080220E490E48FDF753FD78607B68002B12
:105520000AD14FF0500383F31188BFF36F8FBFF39D
:105530004F8F3B6000BFFEE77B6818460837BD46CB
:1055400080BD00BF902D0020942D002074820008A3
:10555000F158000880B588B002AFF860B9607A6091
:105560003B602820FBF7B6F878617B69002B0DD0F3
:105570007B69002283F824207B6901933B6A0093B6
:105580003B687A68B968F86800F005F87B691846E6
:105590001837BD4680BD80B586B000AFF860B960F1
:1055A0007A603B60BB68002B0AD14FF0500383F355
:1055B0001188BFF36F8FBFF34F8F7B6100BFFEE792
:1055C00000F05EFB7B6AFA681A607B6ABA689A61CF
:1055D0007B6A3A68DA617B6A3A6A1A627B6A0433E8
:1055E0001846FBF70CFB7B68002B08D07B6A93F80E
:1055F000243043F00403DAB27B6A83F8242000BF2E
:105600001837BD4680BD80B58AB000AFF860B9607C
:105610007A603B6000237B62FB68002B0AD14FF06D
:10562000500383F31188BFF36F8FBFF34F8F3B623B
:1056300000BFFEE7194B1B68002B2AD0BB687B61BB
:105640007B68BB61FB68FB61BB68052B18DCFFF75F
:10565000ABF90346022B09D1104B186807F114016E
:1056600000233A6BFBF75FFE786212E00B4B186881
:1056700007F1140100230022FBF755FE786208E0D1
:10568000064B186807F1140100233A68FBF74AFF3C
:1056900078627B6A18462837BD4680BD902D002071
:1056A00080B483B000AF0B4B1B68002B0AD14FF0C6
:1056B000500383F31188BFF36F8FBFF34F8F7B606D
:1056C00000BFFEE7034B1B6818460C37BD4680BC85
:1056D000704700BF942D002080B485B000AF786083
:1056E0007B68FB607B68002B0AD14FF0500383F38B
:1056F0001188BFF36F8FBFF34F8FBB6000BFFEE712
:10570000FB689B6918461437BD4680BC704780B55E
:1057100084B000AF786039607B68FB607B68002BE9
:105720000AD14FF0500383F31188BFF36F8FBFF39B
:105730004F8FBB6000BFFEE7FBF7F8FB3B68002B19
:1057400009D0FB6893F8243043F00403DAB2FB6815
:1057500083F8242008E0FB6893F8243023F0040346
:10576000DAB2FB6883F82420FBF710FC00BF103787
:10577000BD4680BD80B586B000AF78607B683B6178
:105780007B68002B0AD14FF0500383F31188BFF3DD
:105790006F8FBFF34F8FFB6000BFFEE7FBF7C6FBC9
:1057A0003B6993F8243003F00403002B02D100235B
:1057B0007B6101E001237B61FBF7E8FB7B69184615
:1057C0001837BD4680BD80B582B000AF786078687C
:1057D000FFF7D0FF034618460837BD4680BD80B4AA
:1057E00087B000AF78607B687B617B68002B0AD153
:1057F0004FF0500383F31188BFF36F8FBFF34F8FC8
:10580000FB6000BFFEE77B695B683B613B69184654
:105810001C37BD4680BC704780B485B000AF78604F
:105820007B68FB607B68002B0AD14FF0500383F349
:105830001188BFF36F8FBFF34F8FBB6000BFFEE7D0
:10584000FB681B6818461437BD4680BC704780B59E
:1058500084B000AFF860B9607A6008E0FB689B69CB
:10586000BA681344BB60FB681B6AF8689847FB681A
:105870009A69BB68D118BB687A68F86800F0DAF8F2
:105880000346002BEAD100BF00BF1037BD4680BDE4
:1058900080B584B000AF78603960144B1B68DB685A
:1058A000DB68FB60FB6804331846FBF70FFAFB6804
:1058B00093F8243003F00403002B05D03A6879688C
:1058C000F868FFF7C4FF08E0FB6893F8243023F082
:1058D0000103DAB2FB6883F82420FB681B6AF868CE
:1058E000984700BF1037BD4680BD00BF882D0020FF
:1058F00080B584B000AF786007F10803184600F067
:1059000057F8F860BB681946F86800F003F800F033
:10591000D3F8F1E780B584B000AF78603960FEF766
:1059200067F907F10803184600F064F8F860BB68EF
:10593000002B30D13B68002B0AD17A68FB689A4271
:1059400006D8FEF763F9F9687868FFF7A1FF24E04D
:105950003B68002B08D0134B1B681B68002B01D140
:10596000012300E000233B600F4B18687A68FB6856
:10597000D31A3A681946FCF782FCFEF747F903464A
:10598000002B0AD1094B4FF080521A60BFF34F8FA2
:10599000BFF36F8F01E0FEF739F900BF1037BD4646
:1059A00080BD00BF8C2D0020902D002004ED00E074
:1059B00080B485B000AF78600D4B1B681B68002B6E
:1059C00001D1012200E000227B681A607B681B681D
:1059D000002B05D1064B1B68DB681B68FB6001E0F0
:1059E0000023FB60FB6818461437BD4680BC704737
:1059F000882D002080B584B000AF7860FEF702FAF1
:105A0000F8600B4B1B68FA689A4205D200F012F955
:105A10007B6801221A6002E07B6800221A60044A57
:105A2000FB681360FB6818461037BD4680BD00BF99
:105A3000982D002080B586B000AFF860B9607A601C
:105A40003B6000237B61FB68BA685A60FB68FA68B8
:105A50001A61BA687B689A4212D87A683B68D21A8F
:105A6000FB689B699A4202D301237B611BE0104BC8
:105A70001A68FB68043319461046FBF7EFF812E08A
:105A80007A683B689A4206D2BA683B689A4202D367
:105A900001237B6107E0074B1A68FB680433194652
:105AA0001046FBF7DBF87B6918461837BD4680BD0A
:105AB0008C2D0020882D002080B588B000AFA6E096
:105AC000BB68002BC0F2A2803B69FB61FB695B698C
:105AD000002B04D0FB6904331846FBF7F7F83B1D95
